{
  "contractName": "MintNFT",
  "abi": [
    {
      "inputs": [
        {
          "internalType": "string",
          "name": "_metadataURI",
          "type": "string"
        }
      ],
      "stateMutability": "nonpayable",
      "type": "constructor"
    },
    {
      "anonymous": false,
      "inputs": [
        {
          "indexed": true,
          "internalType": "address",
          "name": "owner",
          "type": "address"
        },
        {
          "indexed": true,
          "internalType": "address",
          "name": "approved",
          "type": "address"
        },
        {
          "indexed": true,
          "internalType": "uint256",
          "name": "tokenId",
          "type": "uint256"
        }
      ],
      "name": "Approval",
      "type": "event"
    },
    {
      "anonymous": false,
      "inputs": [
        {
          "indexed": true,
          "internalType": "address",
          "name": "owner",
          "type": "address"
        },
        {
          "indexed": true,
          "internalType": "address",
          "name": "operator",
          "type": "address"
        },
        {
          "indexed": false,
          "internalType": "bool",
          "name": "approved",
          "type": "bool"
        }
      ],
      "name": "ApprovalForAll",
      "type": "event"
    },
    {
      "anonymous": false,
      "inputs": [
        {
          "indexed": true,
          "internalType": "address",
          "name": "previousOwner",
          "type": "address"
        },
        {
          "indexed": true,
          "internalType": "address",
          "name": "newOwner",
          "type": "address"
        }
      ],
      "name": "OwnershipTransferred",
      "type": "event"
    },
    {
      "anonymous": false,
      "inputs": [
        {
          "indexed": true,
          "internalType": "address",
          "name": "from",
          "type": "address"
        },
        {
          "indexed": true,
          "internalType": "address",
          "name": "to",
          "type": "address"
        },
        {
          "indexed": true,
          "internalType": "uint256",
          "name": "tokenId",
          "type": "uint256"
        }
      ],
      "name": "Transfer",
      "type": "event"
    },
    {
      "inputs": [],
      "name": "MAX_TOKEN_COUNT",
      "outputs": [
        {
          "internalType": "uint256",
          "name": "",
          "type": "uint256"
        }
      ],
      "stateMutability": "view",
      "type": "function",
      "constant": true
    },
    {
      "inputs": [
        {
          "internalType": "address",
          "name": "to",
          "type": "address"
        },
        {
          "internalType": "uint256",
          "name": "tokenId",
          "type": "uint256"
        }
      ],
      "name": "approve",
      "outputs": [],
      "stateMutability": "nonpayable",
      "type": "function"
    },
    {
      "inputs": [
        {
          "internalType": "address",
          "name": "owner",
          "type": "address"
        }
      ],
      "name": "balanceOf",
      "outputs": [
        {
          "internalType": "uint256",
          "name": "",
          "type": "uint256"
        }
      ],
      "stateMutability": "view",
      "type": "function",
      "constant": true
    },
    {
      "inputs": [
        {
          "internalType": "uint256",
          "name": "tokenId",
          "type": "uint256"
        }
      ],
      "name": "getApproved",
      "outputs": [
        {
          "internalType": "address",
          "name": "",
          "type": "address"
        }
      ],
      "stateMutability": "view",
      "type": "function",
      "constant": true
    },
    {
      "inputs": [
        {
          "internalType": "address",
          "name": "owner",
          "type": "address"
        },
        {
          "internalType": "address",
          "name": "operator",
          "type": "address"
        }
      ],
      "name": "isApprovedForAll",
      "outputs": [
        {
          "internalType": "bool",
          "name": "",
          "type": "bool"
        }
      ],
      "stateMutability": "view",
      "type": "function",
      "constant": true
    },
    {
      "inputs": [],
      "name": "metadataURI",
      "outputs": [
        {
          "internalType": "string",
          "name": "",
          "type": "string"
        }
      ],
      "stateMutability": "view",
      "type": "function",
      "constant": true
    },
    {
      "inputs": [],
      "name": "mint_price",
      "outputs": [
        {
          "internalType": "uint256",
          "name": "",
          "type": "uint256"
        }
      ],
      "stateMutability": "view",
      "type": "function",
      "constant": true
    },
    {
      "inputs": [],
      "name": "name",
      "outputs": [
        {
          "internalType": "string",
          "name": "",
          "type": "string"
        }
      ],
      "stateMutability": "view",
      "type": "function",
      "constant": true
    },
    {
      "inputs": [],
      "name": "owner",
      "outputs": [
        {
          "internalType": "address",
          "name": "",
          "type": "address"
        }
      ],
      "stateMutability": "view",
      "type": "function",
      "constant": true
    },
    {
      "inputs": [
        {
          "internalType": "uint256",
          "name": "tokenId",
          "type": "uint256"
        }
      ],
      "name": "ownerOf",
      "outputs": [
        {
          "internalType": "address",
          "name": "",
          "type": "address"
        }
      ],
      "stateMutability": "view",
      "type": "function",
      "constant": true
    },
    {
      "inputs": [],
      "name": "renounceOwnership",
      "outputs": [],
      "stateMutability": "nonpayable",
      "type": "function"
    },
    {
      "inputs": [
        {
          "internalType": "address",
          "name": "from",
          "type": "address"
        },
        {
          "internalType": "address",
          "name": "to",
          "type": "address"
        },
        {
          "internalType": "uint256",
          "name": "tokenId",
          "type": "uint256"
        }
      ],
      "name": "safeTransferFrom",
      "outputs": [],
      "stateMutability": "nonpayable",
      "type": "function"
    },
    {
      "inputs": [
        {
          "internalType": "address",
          "name": "from",
          "type": "address"
        },
        {
          "internalType": "address",
          "name": "to",
          "type": "address"
        },
        {
          "internalType": "uint256",
          "name": "tokenId",
          "type": "uint256"
        },
        {
          "internalType": "bytes",
          "name": "_data",
          "type": "bytes"
        }
      ],
      "name": "safeTransferFrom",
      "outputs": [],
      "stateMutability": "nonpayable",
      "type": "function"
    },
    {
      "inputs": [
        {
          "internalType": "address",
          "name": "operator",
          "type": "address"
        },
        {
          "internalType": "bool",
          "name": "approved",
          "type": "bool"
        }
      ],
      "name": "setApprovalForAll",
      "outputs": [],
      "stateMutability": "nonpayable",
      "type": "function"
    },
    {
      "inputs": [
        {
          "internalType": "bytes4",
          "name": "interfaceId",
          "type": "bytes4"
        }
      ],
      "name": "supportsInterface",
      "outputs": [
        {
          "internalType": "bool",
          "name": "",
          "type": "bool"
        }
      ],
      "stateMutability": "view",
      "type": "function",
      "constant": true
    },
    {
      "inputs": [],
      "name": "symbol",
      "outputs": [
        {
          "internalType": "string",
          "name": "",
          "type": "string"
        }
      ],
      "stateMutability": "view",
      "type": "function",
      "constant": true
    },
    {
      "inputs": [
        {
          "internalType": "uint256",
          "name": "index",
          "type": "uint256"
        }
      ],
      "name": "tokenByIndex",
      "outputs": [
        {
          "internalType": "uint256",
          "name": "",
          "type": "uint256"
        }
      ],
      "stateMutability": "view",
      "type": "function",
      "constant": true
    },
    {
      "inputs": [
        {
          "internalType": "uint256",
          "name": "",
          "type": "uint256"
        }
      ],
      "name": "tokenCount",
      "outputs": [
        {
          "internalType": "uint256",
          "name": "",
          "type": "uint256"
        }
      ],
      "stateMutability": "view",
      "type": "function",
      "constant": true
    },
    {
      "inputs": [
        {
          "internalType": "address",
          "name": "owner",
          "type": "address"
        },
        {
          "internalType": "uint256",
          "name": "index",
          "type": "uint256"
        }
      ],
      "name": "tokenOfOwnerByIndex",
      "outputs": [
        {
          "internalType": "uint256",
          "name": "",
          "type": "uint256"
        }
      ],
      "stateMutability": "view",
      "type": "function",
      "constant": true
    },
    {
      "inputs": [],
      "name": "totalSupply",
      "outputs": [
        {
          "internalType": "uint256",
          "name": "",
          "type": "uint256"
        }
      ],
      "stateMutability": "view",
      "type": "function",
      "constant": true
    },
    {
      "inputs": [
        {
          "internalType": "address",
          "name": "from",
          "type": "address"
        },
        {
          "internalType": "address",
          "name": "to",
          "type": "address"
        },
        {
          "internalType": "uint256",
          "name": "tokenId",
          "type": "uint256"
        }
      ],
      "name": "transferFrom",
      "outputs": [],
      "stateMutability": "nonpayable",
      "type": "function"
    },
    {
      "inputs": [
        {
          "internalType": "address",
          "name": "newOwner",
          "type": "address"
        }
      ],
      "name": "transferOwnership",
      "outputs": [],
      "stateMutability": "nonpayable",
      "type": "function"
    },
    {
      "inputs": [],
      "name": "mintToken",
      "outputs": [],
      "stateMutability": "payable",
      "type": "function",
      "payable": true
    },
    {
      "inputs": [
        {
          "internalType": "uint256",
          "name": "_tokenId",
          "type": "uint256"
        }
      ],
      "name": "tokenURI",
      "outputs": [
        {
          "internalType": "string",
          "name": "",
          "type": "string"
        }
      ],
      "stateMutability": "view",
      "type": "function",
      "constant": true
    },
    {
      "inputs": [
        {
          "internalType": "string",
          "name": "_uri",
          "type": "string"
        }
      ],
      "name": "setMetadataURI",
      "outputs": [],
      "stateMutability": "nonpayable",
      "type": "function"
    },
    {
      "inputs": [
        {
          "internalType": "uint256",
          "name": "_tokenId",
          "type": "uint256"
        }
      ],
      "name": "burn",
      "outputs": [],
      "stateMutability": "nonpayable",
      "type": "function"
    },
    {
      "inputs": [
        {
          "internalType": "uint256",
          "name": "_tokenId",
          "type": "uint256"
        }
      ],
      "name": "burnArr",
      "outputs": [],
      "stateMutability": "nonpayable",
      "type": "function"
    },
    {
      "inputs": [],
      "name": "getTokenCount",
      "outputs": [
        {
          "internalType": "uint256[]",
          "name": "",
          "type": "uint256[]"
        }
      ],
      "stateMutability": "view",
      "type": "function",
      "constant": true
    }
  ],
  "bytecode": "0x60806040526611c37937e08000600b556001600d553480156200002157600080fd5b506040516200463238038062004632833981810160405281019062000047919062000373565b6040518060400160405280600481526020017f4e414d45000000000000000000000000000000000000000000000000000000008152506040518060400160405280600681526020017f53594d424f4c00000000000000000000000000000000000000000000000000008152508160009081620000c491906200060f565b508060019081620000d691906200060f565b505050620000f9620000ed6200011260201b60201c565b6200011a60201b60201c565b80600c90816200010a91906200060f565b5050620006f6565b600033905090565b6000600a60009054906101000a900473ffffffffffffffffffffffffffffffffffffffff16905081600a60006101000a81548173ffffffffffffffffffffffffffffffffffffffff021916908373ffffffffffffffffffffffffffffffffffffffff1602179055508173ffffffffffffffffffffffffffffffffffffffff168173ffffffffffffffffffffffffffffffffffffffff167f8be0079c531659141344cd1fd0a4f28419497f9722a3daafe3b4186f6b6457e060405160405180910390a35050565b6000604051905090565b600080fd5b600080fd5b600080fd5b600080fd5b6000601f19601f8301169050919050565b7f4e487b7100000000000000000000000000000000000000000000000000000000600052604160045260246000fd5b6200024982620001fe565b810181811067ffffffffffffffff821117156200026b576200026a6200020f565b5b80604052505050565b600062000280620001e0565b90506200028e82826200023e565b919050565b600067ffffffffffffffff821115620002b157620002b06200020f565b5b620002bc82620001fe565b9050602081019050919050565b60005b83811015620002e9578082015181840152602081019050620002cc565b60008484015250505050565b60006200030c620003068462000293565b62000274565b9050828152602081018484840111156200032b576200032a620001f9565b5b62000338848285620002c9565b509392505050565b600082601f830112620003585762000357620001f4565b5b81516200036a848260208601620002f5565b91505092915050565b6000602082840312156200038c576200038b620001ea565b5b600082015167ffffffffffffffff811115620003ad57620003ac620001ef565b5b620003bb8482850162000340565b91505092915050565b600081519050919050565b7f4e487b7100000000000000000000000000000000000000000000000000000000600052602260045260246000fd5b600060028204905060018216806200041757607f821691505b6020821081036200042d576200042c620003cf565b5b50919050565b60008190508160005260206000209050919050565b60006020601f8301049050919050565b600082821b905092915050565b600060088302620004977fffffffffffffffffffffffffffffffffffffffffffffffffffffffffffffffff8262000458565b620004a3868362000458565b95508019841693508086168417925050509392505050565b6000819050919050565b6000819050919050565b6000620004f0620004ea620004e484620004bb565b620004c5565b620004bb565b9050919050565b6000819050919050565b6200050c83620004cf565b620005246200051b82620004f7565b84845462000465565b825550505050565b600090565b6200053b6200052c565b6200054881848462000501565b505050565b5b8181101562000570576200056460008262000531565b6001810190506200054e565b5050565b601f821115620005bf57620005898162000433565b620005948462000448565b81016020851015620005a4578190505b620005bc620005b38562000448565b8301826200054d565b50505b505050565b600082821c905092915050565b6000620005e460001984600802620005c4565b1980831691505092915050565b6000620005ff8383620005d1565b9150826002028217905092915050565b6200061a82620003c4565b67ffffffffffffffff8111156200063657620006356200020f565b5b620006428254620003fe565b6200064f82828562000574565b600060209050601f83116001811462000687576000841562000672578287015190505b6200067e8582620005f1565b865550620006ee565b601f198416620006978662000433565b60005b82811015620006c1578489015182556001820191506020850194506020810190506200069a565b86831015620006e15784890151620006dd601f891682620005d1565b8355505b6001600288020188555050505b505050505050565b613f2c80620007066000396000f3fe6080604052600436106101b75760003560e01c806370a08231116100ec578063b88d4fde1161008a578063da374e2a11610064578063da374e2a146105ff578063dd9d8bb31461063c578063e985e9c514610665578063f2fde38b146106a2576101b7565b8063b88d4fde1461056e578063c87b56dd14610597578063d0bbb0d7146105d4576101b7565b806378a89567116100c657806378a89567146104c45780638da5cb5b146104ef57806395d89b411461051a578063a22cb46514610545576101b7565b806370a0823114610447578063715018a614610484578063750521f51461049b576101b7565b80632004ffd91161015957806342842e0e1161013357806342842e0e1461037b57806342966c68146103a45780634f6ccce7146103cd5780636352211e1461040a576101b7565b80632004ffd91461030b57806323b872dd146103155780632f745c591461033e576101b7565b8063081812fc11610195578063081812fc1461024f578063095ea7b31461028c57806318160ddd146102b55780631a4231a4146102e0576101b7565b806301ffc9a7146101bc57806303ee438c146101f957806306fdde0314610224575b600080fd5b3480156101c857600080fd5b506101e360048036038101906101de9190612614565b6106cb565b6040516101f0919061265c565b60405180910390f35b34801561020557600080fd5b5061020e610745565b60405161021b9190612707565b60405180910390f35b34801561023057600080fd5b506102396107d3565b6040516102469190612707565b60405180910390f35b34801561025b57600080fd5b506102766004803603810190610271919061275f565b610865565b60405161028391906127cd565b60405180910390f35b34801561029857600080fd5b506102b360048036038101906102ae9190612814565b6108ea565b005b3480156102c157600080fd5b506102ca610a01565b6040516102d79190612863565b60405180910390f35b3480156102ec57600080fd5b506102f5610a0e565b6040516103029190612863565b60405180910390f35b610313610a14565b005b34801561032157600080fd5b5061033c6004803603810190610337919061287e565b610bed565b005b34801561034a57600080fd5b5061036560048036038101906103609190612814565b610c4d565b6040516103729190612863565b60405180910390f35b34801561038757600080fd5b506103a2600480360381019061039d919061287e565b610cf2565b005b3480156103b057600080fd5b506103cb60048036038101906103c6919061275f565b610d12565b005b3480156103d957600080fd5b506103f460048036038101906103ef919061275f565b610d1e565b6040516104019190612863565b60405180910390f35b34801561041657600080fd5b50610431600480360381019061042c919061275f565b610d8f565b60405161043e91906127cd565b60405180910390f35b34801561045357600080fd5b5061046e600480360381019061046991906128d1565b610e40565b60405161047b9190612863565b60405180910390f35b34801561049057600080fd5b50610499610ef7565b005b3480156104a757600080fd5b506104c260048036038101906104bd9190612a33565b610f7f565b005b3480156104d057600080fd5b506104d9610f92565b6040516104e69190612b3a565b60405180910390f35b3480156104fb57600080fd5b50610504610fea565b60405161051191906127cd565b60405180910390f35b34801561052657600080fd5b5061052f611014565b60405161053c9190612707565b60405180910390f35b34801561055157600080fd5b5061056c60048036038101906105679190612b88565b6110a6565b005b34801561057a57600080fd5b5061059560048036038101906105909190612c69565b6110bc565b005b3480156105a357600080fd5b506105be60048036038101906105b9919061275f565b61111e565b6040516105cb9190612707565b60405180910390f35b3480156105e057600080fd5b506105e9611158565b6040516105f69190612863565b60405180910390f35b34801561060b57600080fd5b506106266004803603810190610621919061275f565b61115d565b6040516106339190612863565b60405180910390f35b34801561064857600080fd5b50610663600480360381019061065e919061275f565b611181565b005b34801561067157600080fd5b5061068c60048036038101906106879190612cec565b6111b0565b604051610699919061265c565b60405180910390f35b3480156106ae57600080fd5b506106c960048036038101906106c491906128d1565b611244565b005b60007f780e9d63000000000000000000000000000000000000000000000000000000007bffffffffffffffffffffffffffffffffffffffffffffffffffffffff1916827bffffffffffffffffffffffffffffffffffffffffffffffffffffffff1916148061073e575061073d8261133b565b5b9050919050565b600c805461075290612d5b565b80601f016020809104026020016040519081016040528092919081815260200182805461077e90612d5b565b80156107cb5780601f106107a0576101008083540402835291602001916107cb565b820191906000526020600020905b8154815290600101906020018083116107ae57829003601f168201915b505050505081565b6060600080546107e290612d5b565b80601f016020809104026020016040519081016040528092919081815260200182805461080e90612d5b565b801561085b5780601f106108305761010080835404028352916020019161085b565b820191906000526020600020905b81548152906001019060200180831161083e57829003601f168201915b5050505050905090565b60006108708261141d565b6108af576040517f08c379a00000000000000000000000000000000000000000000000000000000081526004016108a690612dfe565b60405180910390fd5b6004600083815260200190815260200160002060009054906101000a900473ffffffffffffffffffffffffffffffffffffffff169050919050565b60006108f582610d8f565b90508073ffffffffffffffffffffffffffffffffffffffff168373ffffffffffffffffffffffffffffffffffffffff1603610965576040517f08c379a000000000000000000000000000000000000000000000000000000000815260040161095c90612e90565b60405180910390fd5b8073ffffffffffffffffffffffffffffffffffffffff16610984611489565b73ffffffffffffffffffffffffffffffffffffffff1614806109b357506109b2816109ad611489565b6111b0565b5b6109f2576040517f08c379a00000000000000000000000000000000000000000000000000000000081526004016109e990612f22565b60405180910390fd5b6109fc8383611491565b505050565b6000600880549050905090565b600b5481565b600b543411610a58576040517f08c379a0000000000000000000000000000000000000000000000000000000008152600401610a4f90612fb4565b60405180910390fd5b610a60610a01565b603c11610aa2576040517f08c379a0000000000000000000000000000000000000000000000000000000008152600401610a9990613046565b60405180910390fd5b6003600e60003373ffffffffffffffffffffffffffffffffffffffff1673ffffffffffffffffffffffffffffffffffffffff1681526020019081526020016000205411610b24576040517f08c379a0000000000000000000000000000000000000000000000000000000008152600401610b1b906130b2565b60405180910390fd5b610b2c610fea565b73ffffffffffffffffffffffffffffffffffffffff166108fc349081150290604051600060405180830381858888f19350505050158015610b71573d6000803e3d6000fd5b50610b7e33600d5461154a565b600d6000815480929190610b9190613101565b9190505550600e60003373ffffffffffffffffffffffffffffffffffffffff1673ffffffffffffffffffffffffffffffffffffffff1681526020019081526020016000206000815480929190610be690613101565b9190505550565b610bfe610bf8611489565b82611723565b610c3d576040517f08c379a0000000000000000000000000000000000000000000000000000000008152600401610c34906131bb565b60405180910390fd5b610c48838383611801565b505050565b6000610c5883610e40565b8210610c99576040517f08c379a0000000000000000000000000000000000000000000000000000000008152600401610c909061324d565b60405180910390fd5b600660008473ffffffffffffffffffffffffffffffffffffffff1673ffffffffffffffffffffffffffffffffffffffff168152602001908152602001600020600083815260200190815260200160002054905092915050565b610d0d838383604051806020016040528060008152506110bc565b505050565b610d1b81611a67565b50565b6000610d28610a01565b8210610d69576040517f08c379a0000000000000000000000000000000000000000000000000000000008152600401610d60906132df565b60405180910390fd5b60088281548110610d7d57610d7c6132ff565b5b90600052602060002001549050919050565b6000806002600084815260200190815260200160002060009054906101000a900473ffffffffffffffffffffffffffffffffffffffff169050600073ffffffffffffffffffffffffffffffffffffffff168173ffffffffffffffffffffffffffffffffffffffff1603610e37576040517f08c379a0000000000000000000000000000000000000000000000000000000008152600401610e2e906133a0565b60405180910390fd5b80915050919050565b60008073ffffffffffffffffffffffffffffffffffffffff168273ffffffffffffffffffffffffffffffffffffffff1603610eb0576040517f08c379a0000000000000000000000000000000000000000000000000000000008152600401610ea790613432565b60405180910390fd5b600360008373ffffffffffffffffffffffffffffffffffffffff1673ffffffffffffffffffffffffffffffffffffffff168152602001908152602001600020549050919050565b610eff611489565b73ffffffffffffffffffffffffffffffffffffffff16610f1d610fea565b73ffffffffffffffffffffffffffffffffffffffff1614610f73576040517f08c379a0000000000000000000000000000000000000000000000000000000008152600401610f6a9061349e565b60405180910390fd5b610f7d6000611b84565b565b80600c9081610f8e919061366a565b5050565b6060600f805480602002602001604051908101604052809291908181526020018280548015610fe057602002820191906000526020600020905b815481526020019060010190808311610fcc575b5050505050905090565b6000600a60009054906101000a900473ffffffffffffffffffffffffffffffffffffffff16905090565b60606001805461102390612d5b565b80601f016020809104026020016040519081016040528092919081815260200182805461104f90612d5b565b801561109c5780601f106110715761010080835404028352916020019161109c565b820191906000526020600020905b81548152906001019060200180831161107f57829003601f168201915b5050505050905090565b6110b86110b1611489565b8383611c4a565b5050565b6110cd6110c7611489565b83611723565b61110c576040517f08c379a0000000000000000000000000000000000000000000000000000000008152600401611103906131bb565b60405180910390fd5b61111884848484611db6565b50505050565b6060600061112b83611e12565b9050600c81604051602001611141929190613893565b604051602081830303815290604052915050919050565b603c81565b600f818154811061116d57600080fd5b906000526020600020016000915090505481565b6000600190505b818110156111ac5761119981611a67565b80806111a490613101565b915050611188565b5050565b6000600560008473ffffffffffffffffffffffffffffffffffffffff1673ffffffffffffffffffffffffffffffffffffffff16815260200190815260200160002060008373ffffffffffffffffffffffffffffffffffffffff1673ffffffffffffffffffffffffffffffffffffffff16815260200190815260200160002060009054906101000a900460ff16905092915050565b61124c611489565b73ffffffffffffffffffffffffffffffffffffffff1661126a610fea565b73ffffffffffffffffffffffffffffffffffffffff16146112c0576040517f08c379a00000000000000000000000000000000000000000000000000000000081526004016112b79061349e565b60405180910390fd5b600073ffffffffffffffffffffffffffffffffffffffff168173ffffffffffffffffffffffffffffffffffffffff160361132f576040517f08c379a00000000000000000000000000000000000000000000000000000000081526004016113269061393f565b60405180910390fd5b61133881611b84565b50565b60007f80ac58cd000000000000000000000000000000000000000000000000000000007bffffffffffffffffffffffffffffffffffffffffffffffffffffffff1916827bffffffffffffffffffffffffffffffffffffffffffffffffffffffff1916148061140657507f5b5e139f000000000000000000000000000000000000000000000000000000007bffffffffffffffffffffffffffffffffffffffffffffffffffffffff1916827bffffffffffffffffffffffffffffffffffffffffffffffffffffffff1916145b80611416575061141582611f72565b5b9050919050565b60008073ffffffffffffffffffffffffffffffffffffffff166002600084815260200190815260200160002060009054906101000a900473ffffffffffffffffffffffffffffffffffffffff1673ffffffffffffffffffffffffffffffffffffffff1614159050919050565b600033905090565b816004600083815260200190815260200160002060006101000a81548173ffffffffffffffffffffffffffffffffffffffff021916908373ffffffffffffffffffffffffffffffffffffffff160217905550808273ffffffffffffffffffffffffffffffffffffffff1661150483610d8f565b73ffffffffffffffffffffffffffffffffffffffff167f8c5be1e5ebec7d5bd14f71427d1e84f3dd0314c0f7b2291e5b200ac8c7c3b92560405160405180910390a45050565b600073ffffffffffffffffffffffffffffffffffffffff168273ffffffffffffffffffffffffffffffffffffffff16036115b9576040517f08c379a00000000000000000000000000000000000000000000000000000000081526004016115b0906139ab565b60405180910390fd5b6115c28161141d565b15611602576040517f08c379a00000000000000000000000000000000000000000000000000000000081526004016115f990613a17565b60405180910390fd5b61160e60008383611fdc565b6001600360008473ffffffffffffffffffffffffffffffffffffffff1673ffffffffffffffffffffffffffffffffffffffff168152602001908152602001600020600082825461165e9190613a37565b92505081905550816002600083815260200190815260200160002060006101000a81548173ffffffffffffffffffffffffffffffffffffffff021916908373ffffffffffffffffffffffffffffffffffffffff160217905550808273ffffffffffffffffffffffffffffffffffffffff16600073ffffffffffffffffffffffffffffffffffffffff167fddf252ad1be2c89b69c2b068fc378daa952ba7f163c4a11628f55a4df523b3ef60405160405180910390a461171f600083836120ee565b5050565b600061172e8261141d565b61176d576040517f08c379a000000000000000000000000000000000000000000000000000000000815260040161176490613add565b60405180910390fd5b600061177883610d8f565b90508073ffffffffffffffffffffffffffffffffffffffff168473ffffffffffffffffffffffffffffffffffffffff1614806117ba57506117b981856111b0565b5b806117f857508373ffffffffffffffffffffffffffffffffffffffff166117e084610865565b73ffffffffffffffffffffffffffffffffffffffff16145b91505092915050565b8273ffffffffffffffffffffffffffffffffffffffff1661182182610d8f565b73ffffffffffffffffffffffffffffffffffffffff1614611877576040517f08c379a000000000000000000000000000000000000000000000000000000000815260040161186e90613b6f565b60405180910390fd5b600073ffffffffffffffffffffffffffffffffffffffff168273ffffffffffffffffffffffffffffffffffffffff16036118e6576040517f08c379a00000000000000000000000000000000000000000000000000000000081526004016118dd90613c01565b60405180910390fd5b6118f1838383611fdc565b6118fc600082611491565b6001600360008573ffffffffffffffffffffffffffffffffffffffff1673ffffffffffffffffffffffffffffffffffffffff168152602001908152602001600020600082825461194c9190613c21565b925050819055506001600360008473ffffffffffffffffffffffffffffffffffffffff1673ffffffffffffffffffffffffffffffffffffffff16815260200190815260200160002060008282546119a39190613a37565b92505081905550816002600083815260200190815260200160002060006101000a81548173ffffffffffffffffffffffffffffffffffffffff021916908373ffffffffffffffffffffffffffffffffffffffff160217905550808273ffffffffffffffffffffffffffffffffffffffff168473ffffffffffffffffffffffffffffffffffffffff167fddf252ad1be2c89b69c2b068fc378daa952ba7f163c4a11628f55a4df523b3ef60405160405180910390a4611a628383836120ee565b505050565b6000611a7282610d8f565b9050611a8081600084611fdc565b611a8b600083611491565b6001600360008373ffffffffffffffffffffffffffffffffffffffff1673ffffffffffffffffffffffffffffffffffffffff1681526020019081526020016000206000828254611adb9190613c21565b925050819055506002600083815260200190815260200160002060006101000a81549073ffffffffffffffffffffffffffffffffffffffff021916905581600073ffffffffffffffffffffffffffffffffffffffff168273ffffffffffffffffffffffffffffffffffffffff167fddf252ad1be2c89b69c2b068fc378daa952ba7f163c4a11628f55a4df523b3ef60405160405180910390a4611b80816000846120ee565b5050565b6000600a60009054906101000a900473ffffffffffffffffffffffffffffffffffffffff16905081600a60006101000a81548173ffffffffffffffffffffffffffffffffffffffff021916908373ffffffffffffffffffffffffffffffffffffffff1602179055508173ffffffffffffffffffffffffffffffffffffffff168173ffffffffffffffffffffffffffffffffffffffff167f8be0079c531659141344cd1fd0a4f28419497f9722a3daafe3b4186f6b6457e060405160405180910390a35050565b8173ffffffffffffffffffffffffffffffffffffffff168373ffffffffffffffffffffffffffffffffffffffff1603611cb8576040517f08c379a0000000000000000000000000000000000000000000000000000000008152600401611caf90613ca1565b60405180910390fd5b80600560008573ffffffffffffffffffffffffffffffffffffffff1673ffffffffffffffffffffffffffffffffffffffff16815260200190815260200160002060008473ffffffffffffffffffffffffffffffffffffffff1673ffffffffffffffffffffffffffffffffffffffff16815260200190815260200160002060006101000a81548160ff0219169083151502179055508173ffffffffffffffffffffffffffffffffffffffff168373ffffffffffffffffffffffffffffffffffffffff167f17307eab39ab6107e8899845ad3d59bd9653f200f220920489ca2b5937696c3183604051611da9919061265c565b60405180910390a3505050565b611dc1848484611801565b611dcd848484846120f3565b611e0c576040517f08c379a0000000000000000000000000000000000000000000000000000000008152600401611e0390613d33565b60405180910390fd5b50505050565b606060008203611e59576040518060400160405280600181526020017f30000000000000000000000000000000000000000000000000000000000000008152509050611f6d565b600082905060005b60008214611e8b578080611e7490613101565b915050600a82611e849190613d82565b9150611e61565b60008167ffffffffffffffff811115611ea757611ea6612908565b5b6040519080825280601f01601f191660200182016040528015611ed95781602001600182028036833780820191505090505b5090505b60008514611f6657600182611ef29190613c21565b9150600a85611f019190613db3565b6030611f0d9190613a37565b60f81b818381518110611f2357611f226132ff565b5b60200101907effffffffffffffffffffffffffffffffffffffffffffffffffffffffffffff1916908160001a905350600a85611f5f9190613d82565b9450611edd565b8093505050505b919050565b60007f01ffc9a7000000000000000000000000000000000000000000000000000000007bffffffffffffffffffffffffffffffffffffffffffffffffffffffff1916827bffffffffffffffffffffffffffffffffffffffffffffffffffffffff1916149050919050565b611fe783838361227a565b600073ffffffffffffffffffffffffffffffffffffffff168373ffffffffffffffffffffffffffffffffffffffff1603612029576120248161227f565b612068565b8173ffffffffffffffffffffffffffffffffffffffff168373ffffffffffffffffffffffffffffffffffffffff16146120675761206683826122c8565b5b5b600073ffffffffffffffffffffffffffffffffffffffff168273ffffffffffffffffffffffffffffffffffffffff16036120aa576120a581612435565b6120e9565b8273ffffffffffffffffffffffffffffffffffffffff168273ffffffffffffffffffffffffffffffffffffffff16146120e8576120e78282612506565b5b5b505050565b505050565b60006121148473ffffffffffffffffffffffffffffffffffffffff16612585565b1561226d578373ffffffffffffffffffffffffffffffffffffffff1663150b7a0261213d611489565b8786866040518563ffffffff1660e01b815260040161215f9493929190613e39565b6020604051808303816000875af192505050801561219b57506040513d601f19601f820116820180604052508101906121989190613e9a565b60015b61221d573d80600081146121cb576040519150601f19603f3d011682016040523d82523d6000602084013e6121d0565b606091505b506000815103612215576040517f08c379a000000000000000000000000000000000000000000000000000000000815260040161220c90613d33565b60405180910390fd5b805181602001fd5b63150b7a0260e01b7bffffffffffffffffffffffffffffffffffffffffffffffffffffffff1916817bffffffffffffffffffffffffffffffffffffffffffffffffffffffff191614915050612272565b600190505b949350505050565b505050565b6008805490506009600083815260200190815260200160002081905550600881908060018154018082558091505060019003906000526020600020016000909190919091505550565b600060016122d584610e40565b6122df9190613c21565b90506000600760008481526020019081526020016000205490508181146123c4576000600660008673ffffffffffffffffffffffffffffffffffffffff1673ffffffffffffffffffffffffffffffffffffffff168152602001908152602001600020600084815260200190815260200160002054905080600660008773ffffffffffffffffffffffffffffffffffffffff1673ffffffffffffffffffffffffffffffffffffffff168152602001908152602001600020600084815260200190815260200160002081905550816007600083815260200190815260200160002081905550505b6007600084815260200190815260200160002060009055600660008573ffffffffffffffffffffffffffffffffffffffff1673ffffffffffffffffffffffffffffffffffffffff16815260200190815260200160002060008381526020019081526020016000206000905550505050565b600060016008805490506124499190613c21565b9050600060096000848152602001908152602001600020549050600060088381548110612479576124786132ff565b5b90600052602060002001549050806008838154811061249b5761249a6132ff565b5b9060005260206000200181905550816009600083815260200190815260200160002081905550600960008581526020019081526020016000206000905560088054806124ea576124e9613ec7565b5b6001900381819060005260206000200160009055905550505050565b600061251183610e40565b905081600660008573ffffffffffffffffffffffffffffffffffffffff1673ffffffffffffffffffffffffffffffffffffffff168152602001908152602001600020600083815260200190815260200160002081905550806007600084815260200190815260200160002081905550505050565b6000808273ffffffffffffffffffffffffffffffffffffffff163b119050919050565b6000604051905090565b600080fd5b600080fd5b60007fffffffff0000000000000000000000000000000000000000000000000000000082169050919050565b6125f1816125bc565b81146125fc57600080fd5b50565b60008135905061260e816125e8565b92915050565b60006020828403121561262a576126296125b2565b5b6000612638848285016125ff565b91505092915050565b60008115159050919050565b61265681612641565b82525050565b6000602082019050612671600083018461264d565b92915050565b600081519050919050565b600082825260208201905092915050565b60005b838110156126b1578082015181840152602081019050612696565b60008484015250505050565b6000601f19601f8301169050919050565b60006126d982612677565b6126e38185612682565b93506126f3818560208601612693565b6126fc816126bd565b840191505092915050565b6000602082019050818103600083015261272181846126ce565b905092915050565b6000819050919050565b61273c81612729565b811461274757600080fd5b50565b60008135905061275981612733565b92915050565b600060208284031215612775576127746125b2565b5b60006127838482850161274a565b91505092915050565b600073ffffffffffffffffffffffffffffffffffffffff82169050919050565b60006127b78261278c565b9050919050565b6127c7816127ac565b82525050565b60006020820190506127e260008301846127be565b92915050565b6127f1816127ac565b81146127fc57600080fd5b50565b60008135905061280e816127e8565b92915050565b6000806040838503121561282b5761282a6125b2565b5b6000612839858286016127ff565b925050602061284a8582860161274a565b9150509250929050565b61285d81612729565b82525050565b60006020820190506128786000830184612854565b92915050565b600080600060608486031215612897576128966125b2565b5b60006128a5868287016127ff565b93505060206128b6868287016127ff565b92505060406128c78682870161274a565b9150509250925092565b6000602082840312156128e7576128e66125b2565b5b60006128f5848285016127ff565b91505092915050565b600080fd5b600080fd5b7f4e487b7100000000000000000000000000000000000000000000000000000000600052604160045260246000fd5b612940826126bd565b810181811067ffffffffffffffff8211171561295f5761295e612908565b5b80604052505050565b60006129726125a8565b905061297e8282612937565b919050565b600067ffffffffffffffff82111561299e5761299d612908565b5b6129a7826126bd565b9050602081019050919050565b82818337600083830152505050565b60006129d66129d184612983565b612968565b9050828152602081018484840111156129f2576129f1612903565b5b6129fd8482856129b4565b509392505050565b600082601f830112612a1a57612a196128fe565b5b8135612a2a8482602086016129c3565b91505092915050565b600060208284031215612a4957612a486125b2565b5b600082013567ffffffffffffffff811115612a6757612a666125b7565b5b612a7384828501612a05565b91505092915050565b600081519050919050565b600082825260208201905092915050565b6000819050602082019050919050565b612ab181612729565b82525050565b6000612ac38383612aa8565b60208301905092915050565b6000602082019050919050565b6000612ae782612a7c565b612af18185612a87565b9350612afc83612a98565b8060005b83811015612b2d578151612b148882612ab7565b9750612b1f83612acf565b925050600181019050612b00565b5085935050505092915050565b60006020820190508181036000830152612b548184612adc565b905092915050565b612b6581612641565b8114612b7057600080fd5b50565b600081359050612b8281612b5c565b92915050565b60008060408385031215612b9f57612b9e6125b2565b5b6000612bad858286016127ff565b9250506020612bbe85828601612b73565b9150509250929050565b600067ffffffffffffffff821115612be357612be2612908565b5b612bec826126bd565b9050602081019050919050565b6000612c0c612c0784612bc8565b612968565b905082815260208101848484011115612c2857612c27612903565b5b612c338482856129b4565b509392505050565b600082601f830112612c5057612c4f6128fe565b5b8135612c60848260208601612bf9565b91505092915050565b60008060008060808587031215612c8357612c826125b2565b5b6000612c91878288016127ff565b9450506020612ca2878288016127ff565b9350506040612cb38782880161274a565b925050606085013567ffffffffffffffff811115612cd457612cd36125b7565b5b612ce087828801612c3b565b91505092959194509250565b60008060408385031215612d0357612d026125b2565b5b6000612d11858286016127ff565b9250506020612d22858286016127ff565b9150509250929050565b7f4e487b7100000000000000000000000000000000000000000000000000000000600052602260045260246000fd5b60006002820490506001821680612d7357607f821691505b602082108103612d8657612d85612d2c565b5b50919050565b7f4552433732313a20617070726f76656420717565727920666f72206e6f6e657860008201527f697374656e7420746f6b656e0000000000000000000000000000000000000000602082015250565b6000612de8602c83612682565b9150612df382612d8c565b604082019050919050565b60006020820190508181036000830152612e1781612ddb565b9050919050565b7f4552433732313a20617070726f76616c20746f2063757272656e74206f776e6560008201527f7200000000000000000000000000000000000000000000000000000000000000602082015250565b6000612e7a602183612682565b9150612e8582612e1e565b604082019050919050565b60006020820190508181036000830152612ea981612e6d565b9050919050565b7f4552433732313a20617070726f76652063616c6c6572206973206e6f74206f7760008201527f6e6572206e6f7220617070726f76656420666f7220616c6c0000000000000000602082015250565b6000612f0c603883612682565b9150612f1782612eb0565b604082019050919050565b60006020820190508181036000830152612f3b81612eff565b9050919050565b7f596f7572206d696e74696e672076616c7565206973206c657373207468616e2060008201527f6f7572206d696e74696e67207374616e64617264000000000000000000000000602082015250565b6000612f9e603483612682565b9150612fa982612f42565b604082019050919050565b60006020820190508181036000830152612fcd81612f91565b9050919050565b7f596f75277665206578636565646564207468652076616c75652074686174207960008201527f6f752063616e206d696e74207065722064617900000000000000000000000000602082015250565b6000613030603383612682565b915061303b82612fd4565b604082019050919050565b6000602082019050818103600083015261305f81613023565b9050919050565b7f6c696d6974204578636573730000000000000000000000000000000000000000600082015250565b600061309c600c83612682565b91506130a782613066565b602082019050919050565b600060208201905081810360008301526130cb8161308f565b9050919050565b7f4e487b7100000000000000000000000000000000000000000000000000000000600052601160045260246000fd5b600061310c82612729565b91507fffffffffffffffffffffffffffffffffffffffffffffffffffffffffffffffff820361313e5761313d6130d2565b5b600182019050919050565b7f4552433732313a207472616e736665722063616c6c6572206973206e6f74206f60008201527f776e6572206e6f7220617070726f766564000000000000000000000000000000602082015250565b60006131a5603183612682565b91506131b082613149565b604082019050919050565b600060208201905081810360008301526131d481613198565b9050919050565b7f455243373231456e756d657261626c653a206f776e657220696e646578206f7560008201527f74206f6620626f756e6473000000000000000000000000000000000000000000602082015250565b6000613237602b83612682565b9150613242826131db565b604082019050919050565b600060208201905081810360008301526132668161322a565b9050919050565b7f455243373231456e756d657261626c653a20676c6f62616c20696e646578206f60008201527f7574206f6620626f756e64730000000000000000000000000000000000000000602082015250565b60006132c9602c83612682565b91506132d48261326d565b604082019050919050565b600060208201905081810360008301526132f8816132bc565b9050919050565b7f4e487b7100000000000000000000000000000000000000000000000000000000600052603260045260246000fd5b7f4552433732313a206f776e657220717565727920666f72206e6f6e657869737460008201527f656e7420746f6b656e0000000000000000000000000000000000000000000000602082015250565b600061338a602983612682565b91506133958261332e565b604082019050919050565b600060208201905081810360008301526133b98161337d565b9050919050565b7f4552433732313a2062616c616e636520717565727920666f7220746865207a6560008201527f726f206164647265737300000000000000000000000000000000000000000000602082015250565b600061341c602a83612682565b9150613427826133c0565b604082019050919050565b6000602082019050818103600083015261344b8161340f565b9050919050565b7f4f776e61626c653a2063616c6c6572206973206e6f7420746865206f776e6572600082015250565b6000613488602083612682565b915061349382613452565b602082019050919050565b600060208201905081810360008301526134b78161347b565b9050919050565b60008190508160005260206000209050919050565b60006020601f8301049050919050565b600082821b905092915050565b6000600883026135207fffffffffffffffffffffffffffffffffffffffffffffffffffffffffffffffff826134e3565b61352a86836134e3565b95508019841693508086168417925050509392505050565b6000819050919050565b600061356761356261355d84612729565b613542565b612729565b9050919050565b6000819050919050565b6135818361354c565b61359561358d8261356e565b8484546134f0565b825550505050565b600090565b6135aa61359d565b6135b5818484613578565b505050565b5b818110156135d9576135ce6000826135a2565b6001810190506135bb565b5050565b601f82111561361e576135ef816134be565b6135f8846134d3565b81016020851015613607578190505b61361b613613856134d3565b8301826135ba565b50505b505050565b600082821c905092915050565b600061364160001984600802613623565b1980831691505092915050565b600061365a8383613630565b9150826002028217905092915050565b61367382612677565b67ffffffffffffffff81111561368c5761368b612908565b5b6136968254612d5b565b6136a18282856135dd565b600060209050601f8311600181146136d457600084156136c2578287015190505b6136cc858261364e565b865550613734565b601f1984166136e2866134be565b60005b8281101561370a578489015182556001820191506020850194506020810190506136e5565b868310156137275784890151613723601f891682613630565b8355505b6001600288020188555050505b505050505050565b600081905092915050565b6000815461375481612d5b565b61375e818661373c565b94506001821660008114613779576001811461378e576137c1565b60ff19831686528115158202860193506137c1565b613797856134be565b60005b838110156137b95781548189015260018201915060208101905061379a565b838801955050505b50505092915050565b7f2f00000000000000000000000000000000000000000000000000000000000000600082015250565b600061380060018361373c565b915061380b826137ca565b600182019050919050565b600061382182612677565b61382b818561373c565b935061383b818560208601612693565b80840191505092915050565b7f2e6a736f6e000000000000000000000000000000000000000000000000000000600082015250565b600061387d60058361373c565b915061388882613847565b600582019050919050565b600061389f8285613747565b91506138aa826137f3565b91506138b68284613816565b91506138c182613870565b91508190509392505050565b7f4f776e61626c653a206e6577206f776e657220697320746865207a65726f206160008201527f6464726573730000000000000000000000000000000000000000000000000000602082015250565b6000613929602683612682565b9150613934826138cd565b604082019050919050565b600060208201905081810360008301526139588161391c565b9050919050565b7f4552433732313a206d696e7420746f20746865207a65726f2061646472657373600082015250565b6000613995602083612682565b91506139a08261395f565b602082019050919050565b600060208201905081810360008301526139c481613988565b9050919050565b7f4552433732313a20746f6b656e20616c7265616479206d696e74656400000000600082015250565b6000613a01601c83612682565b9150613a0c826139cb565b602082019050919050565b60006020820190508181036000830152613a30816139f4565b9050919050565b6000613a4282612729565b9150613a4d83612729565b9250828201905080821115613a6557613a646130d2565b5b92915050565b7f4552433732313a206f70657261746f7220717565727920666f72206e6f6e657860008201527f697374656e7420746f6b656e0000000000000000000000000000000000000000602082015250565b6000613ac7602c83612682565b9150613ad282613a6b565b604082019050919050565b60006020820190508181036000830152613af681613aba565b9050919050565b7f4552433732313a207472616e736665722066726f6d20696e636f72726563742060008201527f6f776e6572000000000000000000000000000000000000000000000000000000602082015250565b6000613b59602583612682565b9150613b6482613afd565b604082019050919050565b60006020820190508181036000830152613b8881613b4c565b9050919050565b7f4552433732313a207472616e7366657220746f20746865207a65726f2061646460008201527f7265737300000000000000000000000000000000000000000000000000000000602082015250565b6000613beb602483612682565b9150613bf682613b8f565b604082019050919050565b60006020820190508181036000830152613c1a81613bde565b9050919050565b6000613c2c82612729565b9150613c3783612729565b9250828203905081811115613c4f57613c4e6130d2565b5b92915050565b7f4552433732313a20617070726f766520746f2063616c6c657200000000000000600082015250565b6000613c8b601983612682565b9150613c9682613c55565b602082019050919050565b60006020820190508181036000830152613cba81613c7e565b9050919050565b7f4552433732313a207472616e7366657220746f206e6f6e20455243373231526560008201527f63656976657220696d706c656d656e7465720000000000000000000000000000602082015250565b6000613d1d603283612682565b9150613d2882613cc1565b604082019050919050565b60006020820190508181036000830152613d4c81613d10565b9050919050565b7f4e487b7100000000000000000000000000000000000000000000000000000000600052601260045260246000fd5b6000613d8d82612729565b9150613d9883612729565b925082613da857613da7613d53565b5b828204905092915050565b6000613dbe82612729565b9150613dc983612729565b925082613dd957613dd8613d53565b5b828206905092915050565b600081519050919050565b600082825260208201905092915050565b6000613e0b82613de4565b613e158185613def565b9350613e25818560208601612693565b613e2e816126bd565b840191505092915050565b6000608082019050613e4e60008301876127be565b613e5b60208301866127be565b613e686040830185612854565b8181036060830152613e7a8184613e00565b905095945050505050565b600081519050613e94816125e8565b92915050565b600060208284031215613eb057613eaf6125b2565b5b6000613ebe84828501613e85565b91505092915050565b7f4e487b7100000000000000000000000000000000000000000000000000000000600052603160045260246000fdfea264697066735822122066e549a271224497800dee2c81fd7ef03c42392f3e3280e8b1b1715f26a367a364736f6c63430008110033",
  "immutableReferences": {},
  "source": "// SPDX-License-Identifier: MIT\r\npragma solidity ^0.8.17;\r\n\r\nimport \"../node_modules/openzeppelin-solidity/contracts/token/ERC721/extensions/ERC721Enumerable.sol\";\r\nimport \"../node_modules/openzeppelin-solidity/contracts/access/Ownable.sol\";\r\nimport \"../node_modules/openzeppelin-solidity/contracts/utils/Strings.sol\";\r\n// import \"./gazeaErc20.sol\";\r\n\r\ncontract MintNFT is ERC721Enumerable,Ownable {\r\n\r\n    //   NFT  \r\n    // event nftTokenList(address nftTokenAddress,uint256 nftTokenNum);\r\n    // NFT \r\n    uint256 public constant MAX_TOKEN_COUNT = 60;\r\n    // mint  \r\n    uint256 public mint_price = 0.005 ether;\r\n    // meta URI\r\n    string public metadataURI;\r\n    uint tokenId = 1;\r\n    mapping (address => uint) buyer;\r\n    uint256[] public tokenCount; \r\n\r\n    constructor(\r\n        // string memory _name,\r\n        // string memory _symbol,\r\n        string memory _metadataURI\r\n    ) ERC721(\"NAME\",\"SYMBOL\") {\r\n        metadataURI = _metadataURI;\r\n    }\r\n\r\n    // 1~100   \r\n    //  \r\n    function mintToken() public payable {\r\n        require(msg.value > mint_price,\"Your minting value is less than our minting standard\");\r\n        // sold-out\r\n        require(MAX_TOKEN_COUNT > totalSupply(),\"You've exceeded the value that you can mint per day\");\r\n        require(buyer[msg.sender] > 3,\"limit Excess\");\r\n        // uint256 total = totalSupply() +1;\r\n        // uint256 tokenId = uint256(keccak256(abi.encodePacked(msg.sender,total,block.timestamp))) % 60;\r\n        // getRandomNum(tokenId);\r\n        // emit nftTokenList(msg.sender,tokenId);\r\n        payable(Ownable.owner()).transfer(msg.value);\r\n        _mint(msg.sender, tokenId);\r\n        tokenId++;\r\n        buyer[msg.sender]++;\r\n    }\r\n    // function getRandomNum(uint256 randomNum) private {\r\n    //     //    \r\n    //     for(uint i = randomNum; i<tokenCount.length -1; i++){\r\n    //             tokenCount[i] = tokenCount[i+1];\r\n    //     }\r\n    //     tokenCount.pop();\r\n    // }\r\n    function tokenURI(uint256 _tokenId) public view override returns (string memory){\r\n        string memory _tokenIdString = string(Strings.toString(_tokenId));\r\n        return string(abi.encodePacked(metadataURI, \"/\",_tokenIdString, \".json\"));\r\n    }\r\n\r\n    function setMetadataURI(string memory _uri) public {\r\n        metadataURI = _uri;\r\n    }\r\n    // function mint(uint256 _tokenId) public {\r\n    //     _mint(msg.sender, _tokenId);\r\n    // }\r\n    // function mintArr(uint256 _tokenId) public {\r\n    //     for(uint i = 1; i<_tokenId; i++){\r\n    //         _mint(msg.sender, i);\r\n    //     }\r\n    // }\r\n    function burn(uint256 _tokenId) public {\r\n        _burn(_tokenId);\r\n    }\r\n    function burnArr(uint256 _tokenId) public {\r\n        for(uint i = 1; i<_tokenId; i++){\r\n            _burn(i);\r\n        }\r\n    }\r\n    function getTokenCount() public view returns (uint256[] memory) {\r\n        return tokenCount;\r\n    }\r\n}\r\n",
  "sourcePath": "C:\\Users\\Ju\\Desktop\\nft-toy-project-HY\\nft-toy-project-HY\\contracts\\MintNFT.sol",
  "compiler": {
    "name": "solc",
    "version": "0.8.17+commit.8df45f5f.Emscripten.clang"
  },
  "schemaVersion": "3.4.11",
  "updatedAt": "2022-12-25T12:08:53.785Z",
  "networkType": "ethereum",
  "devdoc": {
    "kind": "dev",
    "methods": {
      "approve(address,uint256)": {
        "details": "See {IERC721-approve}."
      },
      "balanceOf(address)": {
        "details": "See {IERC721-balanceOf}."
      },
      "getApproved(uint256)": {
        "details": "See {IERC721-getApproved}."
      },
      "isApprovedForAll(address,address)": {
        "details": "See {IERC721-isApprovedForAll}."
      },
      "name()": {
        "details": "See {IERC721Metadata-name}."
      },
      "owner()": {
        "details": "Returns the address of the current owner."
      },
      "ownerOf(uint256)": {
        "details": "See {IERC721-ownerOf}."
      },
      "renounceOwnership()": {
        "details": "Leaves the contract without owner. It will not be possible to call `onlyOwner` functions anymore. Can only be called by the current owner. NOTE: Renouncing ownership will leave the contract without an owner, thereby removing any functionality that is only available to the owner."
      },
      "safeTransferFrom(address,address,uint256)": {
        "details": "See {IERC721-safeTransferFrom}."
      },
      "safeTransferFrom(address,address,uint256,bytes)": {
        "details": "See {IERC721-safeTransferFrom}."
      },
      "setApprovalForAll(address,bool)": {
        "details": "See {IERC721-setApprovalForAll}."
      },
      "supportsInterface(bytes4)": {
        "details": "See {IERC165-supportsInterface}."
      },
      "symbol()": {
        "details": "See {IERC721Metadata-symbol}."
      },
      "tokenByIndex(uint256)": {
        "details": "See {IERC721Enumerable-tokenByIndex}."
      },
      "tokenOfOwnerByIndex(address,uint256)": {
        "details": "See {IERC721Enumerable-tokenOfOwnerByIndex}."
      },
      "totalSupply()": {
        "details": "See {IERC721Enumerable-totalSupply}."
      },
      "transferFrom(address,address,uint256)": {
        "details": "See {IERC721-transferFrom}."
      },
      "transferOwnership(address)": {
        "details": "Transfers ownership of the contract to a new account (`newOwner`). Can only be called by the current owner."
      }
    },
    "version": 1
  },
  "userdoc": {
    "kind": "user",
    "methods": {},
    "version": 1
  }
}