{
  "contractName": "Monster_NFT_Data",
  "abi": [
    {
      "inputs": [
        {
          "internalType": "string",
          "name": "_name",
          "type": "string"
        },
        {
          "internalType": "string",
          "name": "_symbol",
          "type": "string"
        },
        {
          "internalType": "string",
          "name": "_metadataURI",
          "type": "string"
        }
      ],
      "stateMutability": "nonpayable",
      "type": "constructor"
    },
    {
      "anonymous": false,
      "inputs": [
        {
          "indexed": true,
          "internalType": "address",
          "name": "owner",
          "type": "address"
        },
        {
          "indexed": true,
          "internalType": "address",
          "name": "approved",
          "type": "address"
        },
        {
          "indexed": true,
          "internalType": "uint256",
          "name": "tokenId",
          "type": "uint256"
        }
      ],
      "name": "Approval",
      "type": "event"
    },
    {
      "anonymous": false,
      "inputs": [
        {
          "indexed": true,
          "internalType": "address",
          "name": "owner",
          "type": "address"
        },
        {
          "indexed": true,
          "internalType": "address",
          "name": "operator",
          "type": "address"
        },
        {
          "indexed": false,
          "internalType": "bool",
          "name": "approved",
          "type": "bool"
        }
      ],
      "name": "ApprovalForAll",
      "type": "event"
    },
    {
      "anonymous": false,
      "inputs": [
        {
          "indexed": true,
          "internalType": "address",
          "name": "previousOwner",
          "type": "address"
        },
        {
          "indexed": true,
          "internalType": "address",
          "name": "newOwner",
          "type": "address"
        }
      ],
      "name": "OwnershipTransferred",
      "type": "event"
    },
    {
      "anonymous": false,
      "inputs": [
        {
          "indexed": true,
          "internalType": "address",
          "name": "from",
          "type": "address"
        },
        {
          "indexed": true,
          "internalType": "address",
          "name": "to",
          "type": "address"
        },
        {
          "indexed": true,
          "internalType": "uint256",
          "name": "tokenId",
          "type": "uint256"
        }
      ],
      "name": "Transfer",
      "type": "event"
    },
    {
      "inputs": [],
      "name": "MAX_TOKEN_COUNT",
      "outputs": [
        {
          "internalType": "uint256",
          "name": "",
          "type": "uint256"
        }
      ],
      "stateMutability": "view",
      "type": "function"
    },
    {
      "inputs": [
        {
          "internalType": "uint256",
          "name": "",
          "type": "uint256"
        }
      ],
      "name": "TokenDatas",
      "outputs": [
        {
          "internalType": "uint256",
          "name": "Rank",
          "type": "uint256"
        },
        {
          "internalType": "uint256",
          "name": "Type",
          "type": "uint256"
        }
      ],
      "stateMutability": "view",
      "type": "function"
    },
    {
      "inputs": [
        {
          "internalType": "address",
          "name": "to",
          "type": "address"
        },
        {
          "internalType": "uint256",
          "name": "tokenId",
          "type": "uint256"
        }
      ],
      "name": "approve",
      "outputs": [],
      "stateMutability": "nonpayable",
      "type": "function"
    },
    {
      "inputs": [
        {
          "internalType": "address",
          "name": "owner",
          "type": "address"
        }
      ],
      "name": "balanceOf",
      "outputs": [
        {
          "internalType": "uint256",
          "name": "",
          "type": "uint256"
        }
      ],
      "stateMutability": "view",
      "type": "function"
    },
    {
      "inputs": [
        {
          "internalType": "uint256",
          "name": "tokenId",
          "type": "uint256"
        }
      ],
      "name": "getApproved",
      "outputs": [
        {
          "internalType": "address",
          "name": "",
          "type": "address"
        }
      ],
      "stateMutability": "view",
      "type": "function"
    },
    {
      "inputs": [
        {
          "internalType": "address",
          "name": "owner",
          "type": "address"
        },
        {
          "internalType": "address",
          "name": "operator",
          "type": "address"
        }
      ],
      "name": "isApprovedForAll",
      "outputs": [
        {
          "internalType": "bool",
          "name": "",
          "type": "bool"
        }
      ],
      "stateMutability": "view",
      "type": "function"
    },
    {
      "inputs": [],
      "name": "metadataURI",
      "outputs": [
        {
          "internalType": "string",
          "name": "",
          "type": "string"
        }
      ],
      "stateMutability": "view",
      "type": "function"
    },
    {
      "inputs": [],
      "name": "mint_price",
      "outputs": [
        {
          "internalType": "uint256",
          "name": "",
          "type": "uint256"
        }
      ],
      "stateMutability": "view",
      "type": "function"
    },
    {
      "inputs": [],
      "name": "name",
      "outputs": [
        {
          "internalType": "string",
          "name": "",
          "type": "string"
        }
      ],
      "stateMutability": "view",
      "type": "function"
    },
    {
      "inputs": [],
      "name": "owner",
      "outputs": [
        {
          "internalType": "address",
          "name": "",
          "type": "address"
        }
      ],
      "stateMutability": "view",
      "type": "function"
    },
    {
      "inputs": [
        {
          "internalType": "uint256",
          "name": "tokenId",
          "type": "uint256"
        }
      ],
      "name": "ownerOf",
      "outputs": [
        {
          "internalType": "address",
          "name": "",
          "type": "address"
        }
      ],
      "stateMutability": "view",
      "type": "function"
    },
    {
      "inputs": [],
      "name": "renounceOwnership",
      "outputs": [],
      "stateMutability": "nonpayable",
      "type": "function"
    },
    {
      "inputs": [
        {
          "internalType": "address",
          "name": "from",
          "type": "address"
        },
        {
          "internalType": "address",
          "name": "to",
          "type": "address"
        },
        {
          "internalType": "uint256",
          "name": "tokenId",
          "type": "uint256"
        }
      ],
      "name": "safeTransferFrom",
      "outputs": [],
      "stateMutability": "nonpayable",
      "type": "function"
    },
    {
      "inputs": [
        {
          "internalType": "address",
          "name": "from",
          "type": "address"
        },
        {
          "internalType": "address",
          "name": "to",
          "type": "address"
        },
        {
          "internalType": "uint256",
          "name": "tokenId",
          "type": "uint256"
        },
        {
          "internalType": "bytes",
          "name": "_data",
          "type": "bytes"
        }
      ],
      "name": "safeTransferFrom",
      "outputs": [],
      "stateMutability": "nonpayable",
      "type": "function"
    },
    {
      "inputs": [
        {
          "internalType": "address",
          "name": "operator",
          "type": "address"
        },
        {
          "internalType": "bool",
          "name": "approved",
          "type": "bool"
        }
      ],
      "name": "setApprovalForAll",
      "outputs": [],
      "stateMutability": "nonpayable",
      "type": "function"
    },
    {
      "inputs": [
        {
          "internalType": "bytes4",
          "name": "interfaceId",
          "type": "bytes4"
        }
      ],
      "name": "supportsInterface",
      "outputs": [
        {
          "internalType": "bool",
          "name": "",
          "type": "bool"
        }
      ],
      "stateMutability": "view",
      "type": "function"
    },
    {
      "inputs": [],
      "name": "symbol",
      "outputs": [
        {
          "internalType": "string",
          "name": "",
          "type": "string"
        }
      ],
      "stateMutability": "view",
      "type": "function"
    },
    {
      "inputs": [
        {
          "internalType": "uint256",
          "name": "index",
          "type": "uint256"
        }
      ],
      "name": "tokenByIndex",
      "outputs": [
        {
          "internalType": "uint256",
          "name": "",
          "type": "uint256"
        }
      ],
      "stateMutability": "view",
      "type": "function"
    },
    {
      "inputs": [
        {
          "internalType": "uint256",
          "name": "",
          "type": "uint256"
        },
        {
          "internalType": "uint256",
          "name": "",
          "type": "uint256"
        }
      ],
      "name": "tokenCount",
      "outputs": [
        {
          "internalType": "uint256",
          "name": "",
          "type": "uint256"
        }
      ],
      "stateMutability": "view",
      "type": "function"
    },
    {
      "inputs": [
        {
          "internalType": "address",
          "name": "owner",
          "type": "address"
        },
        {
          "internalType": "uint256",
          "name": "index",
          "type": "uint256"
        }
      ],
      "name": "tokenOfOwnerByIndex",
      "outputs": [
        {
          "internalType": "uint256",
          "name": "",
          "type": "uint256"
        }
      ],
      "stateMutability": "view",
      "type": "function"
    },
    {
      "inputs": [],
      "name": "totalSupply",
      "outputs": [
        {
          "internalType": "uint256",
          "name": "",
          "type": "uint256"
        }
      ],
      "stateMutability": "view",
      "type": "function"
    },
    {
      "inputs": [
        {
          "internalType": "address",
          "name": "from",
          "type": "address"
        },
        {
          "internalType": "address",
          "name": "to",
          "type": "address"
        },
        {
          "internalType": "uint256",
          "name": "tokenId",
          "type": "uint256"
        }
      ],
      "name": "transferFrom",
      "outputs": [],
      "stateMutability": "nonpayable",
      "type": "function"
    },
    {
      "inputs": [
        {
          "internalType": "address",
          "name": "newOwner",
          "type": "address"
        }
      ],
      "name": "transferOwnership",
      "outputs": [],
      "stateMutability": "nonpayable",
      "type": "function"
    },
    {
      "inputs": [],
      "name": "mintToken",
      "outputs": [],
      "stateMutability": "payable",
      "type": "function"
    },
    {
      "inputs": [
        {
          "internalType": "uint256",
          "name": "_tokenId",
          "type": "uint256"
        }
      ],
      "name": "tokenURI",
      "outputs": [
        {
          "internalType": "string",
          "name": "",
          "type": "string"
        }
      ],
      "stateMutability": "view",
      "type": "function"
    },
    {
      "inputs": [
        {
          "internalType": "string",
          "name": "_uri",
          "type": "string"
        }
      ],
      "name": "setMetadataURI",
      "outputs": [],
      "stateMutability": "nonpayable",
      "type": "function"
    },
    {
      "inputs": [
        {
          "internalType": "uint256",
          "name": "_tokenId",
          "type": "uint256"
        }
      ],
      "name": "getTokenRank",
      "outputs": [
        {
          "internalType": "uint256",
          "name": "",
          "type": "uint256"
        }
      ],
      "stateMutability": "view",
      "type": "function"
    },
    {
      "inputs": [
        {
          "internalType": "uint256",
          "name": "_tokenId",
          "type": "uint256"
        }
      ],
      "name": "getTokenType",
      "outputs": [
        {
          "internalType": "uint256",
          "name": "",
          "type": "uint256"
        }
      ],
      "stateMutability": "view",
      "type": "function"
    },
    {
      "inputs": [],
      "name": "getTokenCount",
      "outputs": [
        {
          "internalType": "uint256[4][4]",
          "name": "",
          "type": "uint256[4][4]"
        }
      ],
      "stateMutability": "view",
      "type": "function"
    }
  ],
  "bytecode": "0x6080604052670de0b6b3a7640000600b553480156200001d57600080fd5b506040516200491138038062004911833981810160405281019062000043919062000307565b828281600090816200005691906200060b565b5080600190816200006891906200060b565b5050506200008b6200007f620000a660201b60201c565b620000ae60201b60201c565b80600c90816200009c91906200060b565b50505050620006f2565b600033905090565b6000600a60009054906101000a900473ffffffffffffffffffffffffffffffffffffffff16905081600a60006101000a81548173ffffffffffffffffffffffffffffffffffffffff021916908373ffffffffffffffffffffffffffffffffffffffff1602179055508173ffffffffffffffffffffffffffffffffffffffff168173ffffffffffffffffffffffffffffffffffffffff167f8be0079c531659141344cd1fd0a4f28419497f9722a3daafe3b4186f6b6457e060405160405180910390a35050565b6000604051905090565b600080fd5b600080fd5b600080fd5b600080fd5b6000601f19601f8301169050919050565b7f4e487b7100000000000000000000000000000000000000000000000000000000600052604160045260246000fd5b620001dd8262000192565b810181811067ffffffffffffffff82111715620001ff57620001fe620001a3565b5b80604052505050565b60006200021462000174565b9050620002228282620001d2565b919050565b600067ffffffffffffffff821115620002455762000244620001a3565b5b620002508262000192565b9050602081019050919050565b60005b838110156200027d57808201518184015260208101905062000260565b60008484015250505050565b6000620002a06200029a8462000227565b62000208565b905082815260208101848484011115620002bf57620002be6200018d565b5b620002cc8482856200025d565b509392505050565b600082601f830112620002ec57620002eb62000188565b5b8151620002fe84826020860162000289565b91505092915050565b6000806000606084860312156200032357620003226200017e565b5b600084015167ffffffffffffffff81111562000344576200034362000183565b5b6200035286828701620002d4565b935050602084015167ffffffffffffffff81111562000376576200037562000183565b5b6200038486828701620002d4565b925050604084015167ffffffffffffffff811115620003a857620003a762000183565b5b620003b686828701620002d4565b9150509250925092565b600081519050919050565b7f4e487b7100000000000000000000000000000000000000000000000000000000600052602260045260246000fd5b600060028204905060018216806200041357607f821691505b602082108103620004295762000428620003cb565b5b50919050565b60008190508160005260206000209050919050565b60006020601f8301049050919050565b600082821b905092915050565b600060088302620004937fffffffffffffffffffffffffffffffffffffffffffffffffffffffffffffffff8262000454565b6200049f868362000454565b95508019841693508086168417925050509392505050565b6000819050919050565b6000819050919050565b6000620004ec620004e6620004e084620004b7565b620004c1565b620004b7565b9050919050565b6000819050919050565b6200050883620004cb565b620005206200051782620004f3565b84845462000461565b825550505050565b600090565b6200053762000528565b62000544818484620004fd565b505050565b5b818110156200056c57620005606000826200052d565b6001810190506200054a565b5050565b601f821115620005bb5762000585816200042f565b620005908462000444565b81016020851015620005a0578190505b620005b8620005af8562000444565b83018262000549565b50505b505050565b600082821c905092915050565b6000620005e060001984600802620005c0565b1980831691505092915050565b6000620005fb8383620005cd565b9150826002028217905092915050565b6200061682620003c0565b67ffffffffffffffff811115620006325762000631620001a3565b5b6200063e8254620003fa565b6200064b82828562000570565b600060209050601f8311600181146200068357600084156200066e578287015190505b6200067a8582620005ed565b865550620006ea565b601f19841662000693866200042f565b60005b82811015620006bd5784890151825560018201915060208501945060208101905062000696565b86831015620006dd5784890151620006d9601f891682620005cd565b8355505b6001600288020188555050505b505050505050565b61420f80620007026000396000f3fe6080604052600436106101c25760003560e01c806370a08231116100f7578063a22cb46511610095578063d9f33c1411610064578063d9f33c141461065c578063e985e9c514610699578063ea3b04ba146106d6578063f2fde38b14610713576101c2565b8063a22cb465146105a2578063b88d4fde146105cb578063c87b56dd146105f4578063d0bbb0d714610631576101c2565b806376aed2e1116100d157806376aed2e1146104e457806378a89567146105215780638da5cb5b1461054c57806395d89b4114610577576101c2565b806370a0823114610467578063715018a6146104a4578063750521f5146104bb576101c2565b80631b8151ae116101645780632f745c591161013e5780632f745c591461038757806342842e0e146103c45780634f6ccce7146103ed5780636352211e1461042a576101c2565b80631b8151ae146103165780632004ffd91461035457806323b872dd1461035e576101c2565b8063081812fc116101a0578063081812fc1461025a578063095ea7b31461029757806318160ddd146102c05780631a4231a4146102eb576101c2565b806301ffc9a7146101c757806303ee438c1461020457806306fdde031461022f575b600080fd5b3480156101d357600080fd5b506101ee60048036038101906101e991906128f9565b61073c565b6040516101fb9190612941565b60405180910390f35b34801561021057600080fd5b506102196107b6565b60405161022691906129ec565b60405180910390f35b34801561023b57600080fd5b50610244610844565b60405161025191906129ec565b60405180910390f35b34801561026657600080fd5b50610281600480360381019061027c9190612a44565b6108d6565b60405161028e9190612ab2565b60405180910390f35b3480156102a357600080fd5b506102be60048036038101906102b99190612af9565b61095b565b005b3480156102cc57600080fd5b506102d5610a72565b6040516102e29190612b48565b60405180910390f35b3480156102f757600080fd5b50610300610a7f565b60405161030d9190612b48565b60405180910390f35b34801561032257600080fd5b5061033d60048036038101906103389190612a44565b610a85565b60405161034b929190612b63565b60405180910390f35b61035c610aa9565b005b34801561036a57600080fd5b5061038560048036038101906103809190612b8c565b610bff565b005b34801561039357600080fd5b506103ae60048036038101906103a99190612af9565b610c5f565b6040516103bb9190612b48565b60405180910390f35b3480156103d057600080fd5b506103eb60048036038101906103e69190612b8c565b610d04565b005b3480156103f957600080fd5b50610414600480360381019061040f9190612a44565b610d24565b6040516104219190612b48565b60405180910390f35b34801561043657600080fd5b50610451600480360381019061044c9190612a44565b610d95565b60405161045e9190612ab2565b60405180910390f35b34801561047357600080fd5b5061048e60048036038101906104899190612bdf565b610e46565b60405161049b9190612b48565b60405180910390f35b3480156104b057600080fd5b506104b9610efd565b005b3480156104c757600080fd5b506104e260048036038101906104dd9190612d41565b610f85565b005b3480156104f057600080fd5b5061050b60048036038101906105069190612a44565b611014565b6040516105189190612b48565b60405180910390f35b34801561052d57600080fd5b50610536611034565b6040516105439190612ed1565b60405180910390f35b34801561055857600080fd5b506105616110b7565b60405161056e9190612ab2565b60405180910390f35b34801561058357600080fd5b5061058c6110e1565b60405161059991906129ec565b60405180910390f35b3480156105ae57600080fd5b506105c960048036038101906105c49190612f19565b611173565b005b3480156105d757600080fd5b506105f260048036038101906105ed9190612ffa565b611189565b005b34801561060057600080fd5b5061061b60048036038101906106169190612a44565b6111eb565b60405161062891906129ec565b60405180910390f35b34801561063d57600080fd5b50610646611261565b6040516106539190612b48565b60405180910390f35b34801561066857600080fd5b50610683600480360381019061067e9190612a44565b611266565b6040516106909190612b48565b60405180910390f35b3480156106a557600080fd5b506106c060048036038101906106bb919061307d565b611286565b6040516106cd9190612941565b60405180910390f35b3480156106e257600080fd5b506106fd60048036038101906106f891906130bd565b61131a565b60405161070a9190612b48565b60405180910390f35b34801561071f57600080fd5b5061073a60048036038101906107359190612bdf565b611348565b005b60007f780e9d63000000000000000000000000000000000000000000000000000000007bffffffffffffffffffffffffffffffffffffffffffffffffffffffff1916827bffffffffffffffffffffffffffffffffffffffffffffffffffffffff191614806107af57506107ae8261143f565b5b9050919050565b600c80546107c39061312c565b80601f01602080910402602001604051908101604052809291908181526020018280546107ef9061312c565b801561083c5780601f106108115761010080835404028352916020019161083c565b820191906000526020600020905b81548152906001019060200180831161081f57829003601f168201915b505050505081565b6060600080546108539061312c565b80601f016020809104026020016040519081016040528092919081815260200182805461087f9061312c565b80156108cc5780601f106108a1576101008083540402835291602001916108cc565b820191906000526020600020905b8154815290600101906020018083116108af57829003601f168201915b5050505050905090565b60006108e182611521565b610920576040517f08c379a0000000000000000000000000000000000000000000000000000000008152600401610917906131cf565b60405180910390fd5b6004600083815260200190815260200160002060009054906101000a900473ffffffffffffffffffffffffffffffffffffffff169050919050565b600061096682610d95565b90508073ffffffffffffffffffffffffffffffffffffffff168373ffffffffffffffffffffffffffffffffffffffff16036109d6576040517f08c379a00000000000000000000000000000000000000000000000000000000081526004016109cd90613261565b60405180910390fd5b8073ffffffffffffffffffffffffffffffffffffffff166109f561158d565b73ffffffffffffffffffffffffffffffffffffffff161480610a245750610a2381610a1e61158d565b611286565b5b610a63576040517f08c379a0000000000000000000000000000000000000000000000000000000008152600401610a5a906132f3565b60405180910390fd5b610a6d8383611595565b505050565b6000600880549050905090565b600b5481565b600d6020528060005260406000206000915090508060000154908060010154905082565b600b543411610ab757600080fd5b610abf610a72565b603c11610acb57600080fd5b60006001610ad7610a72565b610ae19190613342565b90506000610aef338361164e565b905080600d600084815260200190815260200160002060008201518160000155602082015181600101559050506001600e6001600d600086815260200190815260200160002060000154610b439190613376565b60048110610b5457610b536133aa565b5b600402016001600d600086815260200190815260200160002060010154610b7b9190613376565b60048110610b8c57610b8b6133aa565b5b016000828254610b9c9190613342565b92505081905550610bab6110b7565b73ffffffffffffffffffffffffffffffffffffffff166108fc349081150290604051600060405180830381858888f19350505050158015610bf0573d6000803e3d6000fd5b50610bfb33836118e3565b5050565b610c10610c0a61158d565b82611abc565b610c4f576040517f08c379a0000000000000000000000000000000000000000000000000000000008152600401610c469061344b565b60405180910390fd5b610c5a838383611b9a565b505050565b6000610c6a83610e46565b8210610cab576040517f08c379a0000000000000000000000000000000000000000000000000000000008152600401610ca2906134dd565b60405180910390fd5b600660008473ffffffffffffffffffffffffffffffffffffffff1673ffffffffffffffffffffffffffffffffffffffff168152602001908152602001600020600083815260200190815260200160002054905092915050565b610d1f83838360405180602001604052806000815250611189565b505050565b6000610d2e610a72565b8210610d6f576040517f08c379a0000000000000000000000000000000000000000000000000000000008152600401610d669061356f565b60405180910390fd5b60088281548110610d8357610d826133aa565b5b90600052602060002001549050919050565b6000806002600084815260200190815260200160002060009054906101000a900473ffffffffffffffffffffffffffffffffffffffff169050600073ffffffffffffffffffffffffffffffffffffffff168173ffffffffffffffffffffffffffffffffffffffff1603610e3d576040517f08c379a0000000000000000000000000000000000000000000000000000000008152600401610e3490613601565b60405180910390fd5b80915050919050565b60008073ffffffffffffffffffffffffffffffffffffffff168273ffffffffffffffffffffffffffffffffffffffff1603610eb6576040517f08c379a0000000000000000000000000000000000000000000000000000000008152600401610ead90613693565b60405180910390fd5b600360008373ffffffffffffffffffffffffffffffffffffffff1673ffffffffffffffffffffffffffffffffffffffff168152602001908152602001600020549050919050565b610f0561158d565b73ffffffffffffffffffffffffffffffffffffffff16610f236110b7565b73ffffffffffffffffffffffffffffffffffffffff1614610f79576040517f08c379a0000000000000000000000000000000000000000000000000000000008152600401610f70906136ff565b60405180910390fd5b610f836000611e00565b565b610f8d61158d565b73ffffffffffffffffffffffffffffffffffffffff16610fab6110b7565b73ffffffffffffffffffffffffffffffffffffffff1614611001576040517f08c379a0000000000000000000000000000000000000000000000000000000008152600401610ff8906136ff565b60405180910390fd5b80600c908161101091906138cb565b5050565b6000600d6000838152602001908152602001600020600101549050919050565b61103c612824565b600e600480602002604051908101604052809291906000905b828210156110ae5783826004020160048060200260405190810160405280929190826004801561109a576020028201915b815481526020019060010190808311611086575b505050505081526020019060010190611055565b50505050905090565b6000600a60009054906101000a900473ffffffffffffffffffffffffffffffffffffffff16905090565b6060600180546110f09061312c565b80601f016020809104026020016040519081016040528092919081815260200182805461111c9061312c565b80156111695780601f1061113e57610100808354040283529160200191611169565b820191906000526020600020905b81548152906001019060200180831161114c57829003601f168201915b5050505050905090565b61118561117e61158d565b8383611ec6565b5050565b61119a61119461158d565b83611abc565b6111d9576040517f08c379a00000000000000000000000000000000000000000000000000000000081526004016111d09061344b565b60405180910390fd5b6111e584848484612032565b50505050565b6060600061120e600d60008581526020019081526020016000206000015461208e565b90506000611231600d60008681526020019081526020016000206001015461208e565b9050600c828260405160200161124993929190613af4565b60405160208183030381529060405292505050919050565b603c81565b6000600d6000838152602001908152602001600020600001549050919050565b6000600560008473ffffffffffffffffffffffffffffffffffffffff1673ffffffffffffffffffffffffffffffffffffffff16815260200190815260200160002060008373ffffffffffffffffffffffffffffffffffffffff1673ffffffffffffffffffffffffffffffffffffffff16815260200190815260200160002060009054906101000a900460ff16905092915050565b600e826004811061132a57600080fd5b60040201816004811061133c57600080fd5b01600091509150505481565b61135061158d565b73ffffffffffffffffffffffffffffffffffffffff1661136e6110b7565b73ffffffffffffffffffffffffffffffffffffffff16146113c4576040517f08c379a00000000000000000000000000000000000000000000000000000000081526004016113bb906136ff565b60405180910390fd5b600073ffffffffffffffffffffffffffffffffffffffff168173ffffffffffffffffffffffffffffffffffffffff1603611433576040517f08c379a000000000000000000000000000000000000000000000000000000000815260040161142a90613bad565b60405180910390fd5b61143c81611e00565b50565b60007f80ac58cd000000000000000000000000000000000000000000000000000000007bffffffffffffffffffffffffffffffffffffffffffffffffffffffff1916827bffffffffffffffffffffffffffffffffffffffffffffffffffffffff1916148061150a57507f5b5e139f000000000000000000000000000000000000000000000000000000007bffffffffffffffffffffffffffffffffffffffffffffffffffffffff1916827bffffffffffffffffffffffffffffffffffffffffffffffffffffffff1916145b8061151a5750611519826121ee565b5b9050919050565b60008073ffffffffffffffffffffffffffffffffffffffff166002600084815260200190815260200160002060009054906101000a900473ffffffffffffffffffffffffffffffffffffffff1673ffffffffffffffffffffffffffffffffffffffff1614159050919050565b600033905090565b816004600083815260200190815260200160002060006101000a81548173ffffffffffffffffffffffffffffffffffffffff021916908373ffffffffffffffffffffffffffffffffffffffff160217905550808273ffffffffffffffffffffffffffffffffffffffff1661160883610d95565b73ffffffffffffffffffffffffffffffffffffffff167f8c5be1e5ebec7d5bd14f71427d1e84f3dd0314c0f7b2291e5b200ac8c7c3b92560405160405180910390a45050565b611656612851565b6000603c848460405160200161166d929190613c36565b6040516020818303038152906040528051906020012060001c6116909190613c91565b905061169a612851565b600482101561172a57600182036116c65760048160000181815250506004816020018181525050611725565b600282036116e95760048160000181815250506003816020018181525050611724565b6003820361170c5760048160000181815250506002816020018181525050611723565b600481600001818152505060018160200181815250505b5b5b6118d8565b600c8210156117bd57600682101561175757600381600001818152505060048160200181815250506117b8565b600882101561177b57600381600001818152505060038160200181815250506117b7565b600a82101561179f57600381600001818152505060028160200181815250506117b6565b600381600001818152505060018160200181815250505b5b5b6118d7565b601c8210156118505760108210156117ea576002816000018181525050600481602001818152505061184b565b601482101561180e576002816000018181525050600381602001818152505061184a565b60188210156118325760028160000181815250506002816020018181525050611849565b600281600001818152505060018160200181815250505b5b5b6118d6565b602482101561187457600181600001818152505060048160200181815250506118d5565b602c82101561189857600181600001818152505060038160200181815250506118d4565b60348210156118bc57600181600001818152505060028160200181815250506118d3565b600181600001818152505060018160200181815250505b5b5b5b5b5b809250505092915050565b600073ffffffffffffffffffffffffffffffffffffffff168273ffffffffffffffffffffffffffffffffffffffff1603611952576040517f08c379a000000000000000000000000000000000000000000000000000000000815260040161194990613d0e565b60405180910390fd5b61195b81611521565b1561199b576040517f08c379a000000000000000000000000000000000000000000000000000000000815260040161199290613d7a565b60405180910390fd5b6119a760008383612258565b6001600360008473ffffffffffffffffffffffffffffffffffffffff1673ffffffffffffffffffffffffffffffffffffffff16815260200190815260200160002060008282546119f79190613342565b92505081905550816002600083815260200190815260200160002060006101000a81548173ffffffffffffffffffffffffffffffffffffffff021916908373ffffffffffffffffffffffffffffffffffffffff160217905550808273ffffffffffffffffffffffffffffffffffffffff16600073ffffffffffffffffffffffffffffffffffffffff167fddf252ad1be2c89b69c2b068fc378daa952ba7f163c4a11628f55a4df523b3ef60405160405180910390a4611ab86000838361236a565b5050565b6000611ac782611521565b611b06576040517f08c379a0000000000000000000000000000000000000000000000000000000008152600401611afd90613e0c565b60405180910390fd5b6000611b1183610d95565b90508073ffffffffffffffffffffffffffffffffffffffff168473ffffffffffffffffffffffffffffffffffffffff161480611b535750611b528185611286565b5b80611b9157508373ffffffffffffffffffffffffffffffffffffffff16611b79846108d6565b73ffffffffffffffffffffffffffffffffffffffff16145b91505092915050565b8273ffffffffffffffffffffffffffffffffffffffff16611bba82610d95565b73ffffffffffffffffffffffffffffffffffffffff1614611c10576040517f08c379a0000000000000000000000000000000000000000000000000000000008152600401611c0790613e9e565b60405180910390fd5b600073ffffffffffffffffffffffffffffffffffffffff168273ffffffffffffffffffffffffffffffffffffffff1603611c7f576040517f08c379a0000000000000000000000000000000000000000000000000000000008152600401611c7690613f30565b60405180910390fd5b611c8a838383612258565b611c95600082611595565b6001600360008573ffffffffffffffffffffffffffffffffffffffff1673ffffffffffffffffffffffffffffffffffffffff1681526020019081526020016000206000828254611ce59190613376565b925050819055506001600360008473ffffffffffffffffffffffffffffffffffffffff1673ffffffffffffffffffffffffffffffffffffffff1681526020019081526020016000206000828254611d3c9190613342565b92505081905550816002600083815260200190815260200160002060006101000a81548173ffffffffffffffffffffffffffffffffffffffff021916908373ffffffffffffffffffffffffffffffffffffffff160217905550808273ffffffffffffffffffffffffffffffffffffffff168473ffffffffffffffffffffffffffffffffffffffff167fddf252ad1be2c89b69c2b068fc378daa952ba7f163c4a11628f55a4df523b3ef60405160405180910390a4611dfb83838361236a565b505050565b6000600a60009054906101000a900473ffffffffffffffffffffffffffffffffffffffff16905081600a60006101000a81548173ffffffffffffffffffffffffffffffffffffffff021916908373ffffffffffffffffffffffffffffffffffffffff1602179055508173ffffffffffffffffffffffffffffffffffffffff168173ffffffffffffffffffffffffffffffffffffffff167f8be0079c531659141344cd1fd0a4f28419497f9722a3daafe3b4186f6b6457e060405160405180910390a35050565b8173ffffffffffffffffffffffffffffffffffffffff168373ffffffffffffffffffffffffffffffffffffffff1603611f34576040517f08c379a0000000000000000000000000000000000000000000000000000000008152600401611f2b90613f9c565b60405180910390fd5b80600560008573ffffffffffffffffffffffffffffffffffffffff1673ffffffffffffffffffffffffffffffffffffffff16815260200190815260200160002060008473ffffffffffffffffffffffffffffffffffffffff1673ffffffffffffffffffffffffffffffffffffffff16815260200190815260200160002060006101000a81548160ff0219169083151502179055508173ffffffffffffffffffffffffffffffffffffffff168373ffffffffffffffffffffffffffffffffffffffff167f17307eab39ab6107e8899845ad3d59bd9653f200f220920489ca2b5937696c31836040516120259190612941565b60405180910390a3505050565b61203d848484611b9a565b6120498484848461236f565b612088576040517f08c379a000000000000000000000000000000000000000000000000000000000815260040161207f9061402e565b60405180910390fd5b50505050565b6060600082036120d5576040518060400160405280600181526020017f300000000000000000000000000000000000000000000000000000000000000081525090506121e9565b600082905060005b600082146121075780806120f09061404e565b915050600a826121009190614096565b91506120dd565b60008167ffffffffffffffff81111561212357612122612c16565b5b6040519080825280601f01601f1916602001820160405280156121555781602001600182028036833780820191505090505b5090505b600085146121e25760018261216e9190613376565b9150600a8561217d9190613c91565b60306121899190613342565b60f81b81838151811061219f5761219e6133aa565b5b60200101907effffffffffffffffffffffffffffffffffffffffffffffffffffffffffffff1916908160001a905350600a856121db9190614096565b9450612159565b8093505050505b919050565b60007f01ffc9a7000000000000000000000000000000000000000000000000000000007bffffffffffffffffffffffffffffffffffffffffffffffffffffffff1916827bffffffffffffffffffffffffffffffffffffffffffffffffffffffff1916149050919050565b6122638383836124f6565b600073ffffffffffffffffffffffffffffffffffffffff168373ffffffffffffffffffffffffffffffffffffffff16036122a5576122a0816124fb565b6122e4565b8173ffffffffffffffffffffffffffffffffffffffff168373ffffffffffffffffffffffffffffffffffffffff16146122e3576122e28382612544565b5b5b600073ffffffffffffffffffffffffffffffffffffffff168273ffffffffffffffffffffffffffffffffffffffff160361232657612321816126b1565b612365565b8273ffffffffffffffffffffffffffffffffffffffff168273ffffffffffffffffffffffffffffffffffffffff1614612364576123638282612782565b5b5b505050565b505050565b60006123908473ffffffffffffffffffffffffffffffffffffffff16612801565b156124e9578373ffffffffffffffffffffffffffffffffffffffff1663150b7a026123b961158d565b8786866040518563ffffffff1660e01b81526004016123db949392919061411c565b6020604051808303816000875af192505050801561241757506040513d601f19601f82011682018060405250810190612414919061417d565b60015b612499573d8060008114612447576040519150601f19603f3d011682016040523d82523d6000602084013e61244c565b606091505b506000815103612491576040517f08c379a00000000000000000000000000000000000000000000000000000000081526004016124889061402e565b60405180910390fd5b805181602001fd5b63150b7a0260e01b7bffffffffffffffffffffffffffffffffffffffffffffffffffffffff1916817bffffffffffffffffffffffffffffffffffffffffffffffffffffffff1916149150506124ee565b600190505b949350505050565b505050565b6008805490506009600083815260200190815260200160002081905550600881908060018154018082558091505060019003906000526020600020016000909190919091505550565b6000600161255184610e46565b61255b9190613376565b9050600060076000848152602001908152602001600020549050818114612640576000600660008673ffffffffffffffffffffffffffffffffffffffff1673ffffffffffffffffffffffffffffffffffffffff168152602001908152602001600020600084815260200190815260200160002054905080600660008773ffffffffffffffffffffffffffffffffffffffff1673ffffffffffffffffffffffffffffffffffffffff168152602001908152602001600020600084815260200190815260200160002081905550816007600083815260200190815260200160002081905550505b6007600084815260200190815260200160002060009055600660008573ffffffffffffffffffffffffffffffffffffffff1673ffffffffffffffffffffffffffffffffffffffff16815260200190815260200160002060008381526020019081526020016000206000905550505050565b600060016008805490506126c59190613376565b90506000600960008481526020019081526020016000205490506000600883815481106126f5576126f46133aa565b5b906000526020600020015490508060088381548110612717576127166133aa565b5b906000526020600020018190555081600960008381526020019081526020016000208190555060096000858152602001908152602001600020600090556008805480612766576127656141aa565b5b6001900381819060005260206000200160009055905550505050565b600061278d83610e46565b905081600660008573ffffffffffffffffffffffffffffffffffffffff1673ffffffffffffffffffffffffffffffffffffffff168152602001908152602001600020600083815260200190815260200160002081905550806007600084815260200190815260200160002081905550505050565b6000808273ffffffffffffffffffffffffffffffffffffffff163b119050919050565b60405180608001604052806004905b61283b61286b565b8152602001906001900390816128335790505090565b604051806040016040528060008152602001600081525090565b6040518060800160405280600490602082028036833780820191505090505090565b6000604051905090565b600080fd5b600080fd5b60007fffffffff0000000000000000000000000000000000000000000000000000000082169050919050565b6128d6816128a1565b81146128e157600080fd5b50565b6000813590506128f3816128cd565b92915050565b60006020828403121561290f5761290e612897565b5b600061291d848285016128e4565b91505092915050565b60008115159050919050565b61293b81612926565b82525050565b60006020820190506129566000830184612932565b92915050565b600081519050919050565b600082825260208201905092915050565b60005b8381101561299657808201518184015260208101905061297b565b60008484015250505050565b6000601f19601f8301169050919050565b60006129be8261295c565b6129c88185612967565b93506129d8818560208601612978565b6129e1816129a2565b840191505092915050565b60006020820190508181036000830152612a0681846129b3565b905092915050565b6000819050919050565b612a2181612a0e565b8114612a2c57600080fd5b50565b600081359050612a3e81612a18565b92915050565b600060208284031215612a5a57612a59612897565b5b6000612a6884828501612a2f565b91505092915050565b600073ffffffffffffffffffffffffffffffffffffffff82169050919050565b6000612a9c82612a71565b9050919050565b612aac81612a91565b82525050565b6000602082019050612ac76000830184612aa3565b92915050565b612ad681612a91565b8114612ae157600080fd5b50565b600081359050612af381612acd565b92915050565b60008060408385031215612b1057612b0f612897565b5b6000612b1e85828601612ae4565b9250506020612b2f85828601612a2f565b9150509250929050565b612b4281612a0e565b82525050565b6000602082019050612b5d6000830184612b39565b92915050565b6000604082019050612b786000830185612b39565b612b856020830184612b39565b9392505050565b600080600060608486031215612ba557612ba4612897565b5b6000612bb386828701612ae4565b9350506020612bc486828701612ae4565b9250506040612bd586828701612a2f565b9150509250925092565b600060208284031215612bf557612bf4612897565b5b6000612c0384828501612ae4565b91505092915050565b600080fd5b600080fd5b7f4e487b7100000000000000000000000000000000000000000000000000000000600052604160045260246000fd5b612c4e826129a2565b810181811067ffffffffffffffff82111715612c6d57612c6c612c16565b5b80604052505050565b6000612c8061288d565b9050612c8c8282612c45565b919050565b600067ffffffffffffffff821115612cac57612cab612c16565b5b612cb5826129a2565b9050602081019050919050565b82818337600083830152505050565b6000612ce4612cdf84612c91565b612c76565b905082815260208101848484011115612d0057612cff612c11565b5b612d0b848285612cc2565b509392505050565b600082601f830112612d2857612d27612c0c565b5b8135612d38848260208601612cd1565b91505092915050565b600060208284031215612d5757612d56612897565b5b600082013567ffffffffffffffff811115612d7557612d7461289c565b5b612d8184828501612d13565b91505092915050565b600060049050919050565b600081905092915050565b6000819050919050565b600060049050919050565b600081905092915050565b6000819050919050565b612dd381612a0e565b82525050565b6000612de58383612dca565b60208301905092915050565b6000602082019050919050565b612e0781612daa565b612e118184612db5565b9250612e1c82612dc0565b8060005b83811015612e4d578151612e348782612dd9565b9650612e3f83612df1565b925050600181019050612e20565b505050505050565b6000612e618383612dfe565b60808301905092915050565b6000602082019050919050565b612e8381612d8a565b612e8d8184612d95565b9250612e9882612da0565b8060005b83811015612ec9578151612eb08782612e55565b9650612ebb83612e6d565b925050600181019050612e9c565b505050505050565b600061020082019050612ee76000830184612e7a565b92915050565b612ef681612926565b8114612f0157600080fd5b50565b600081359050612f1381612eed565b92915050565b60008060408385031215612f3057612f2f612897565b5b6000612f3e85828601612ae4565b9250506020612f4f85828601612f04565b9150509250929050565b600067ffffffffffffffff821115612f7457612f73612c16565b5b612f7d826129a2565b9050602081019050919050565b6000612f9d612f9884612f59565b612c76565b905082815260208101848484011115612fb957612fb8612c11565b5b612fc4848285612cc2565b509392505050565b600082601f830112612fe157612fe0612c0c565b5b8135612ff1848260208601612f8a565b91505092915050565b6000806000806080858703121561301457613013612897565b5b600061302287828801612ae4565b945050602061303387828801612ae4565b935050604061304487828801612a2f565b925050606085013567ffffffffffffffff8111156130655761306461289c565b5b61307187828801612fcc565b91505092959194509250565b6000806040838503121561309457613093612897565b5b60006130a285828601612ae4565b92505060206130b385828601612ae4565b9150509250929050565b600080604083850312156130d4576130d3612897565b5b60006130e285828601612a2f565b92505060206130f385828601612a2f565b9150509250929050565b7f4e487b7100000000000000000000000000000000000000000000000000000000600052602260045260246000fd5b6000600282049050600182168061314457607f821691505b602082108103613157576131566130fd565b5b50919050565b7f4552433732313a20617070726f76656420717565727920666f72206e6f6e657860008201527f697374656e7420746f6b656e0000000000000000000000000000000000000000602082015250565b60006131b9602c83612967565b91506131c48261315d565b604082019050919050565b600060208201905081810360008301526131e8816131ac565b9050919050565b7f4552433732313a20617070726f76616c20746f2063757272656e74206f776e6560008201527f7200000000000000000000000000000000000000000000000000000000000000602082015250565b600061324b602183612967565b9150613256826131ef565b604082019050919050565b6000602082019050818103600083015261327a8161323e565b9050919050565b7f4552433732313a20617070726f76652063616c6c6572206973206e6f74206f7760008201527f6e6572206e6f7220617070726f76656420666f7220616c6c0000000000000000602082015250565b60006132dd603883612967565b91506132e882613281565b604082019050919050565b6000602082019050818103600083015261330c816132d0565b9050919050565b7f4e487b7100000000000000000000000000000000000000000000000000000000600052601160045260246000fd5b600061334d82612a0e565b915061335883612a0e565b92508282019050808211156133705761336f613313565b5b92915050565b600061338182612a0e565b915061338c83612a0e565b92508282039050818111156133a4576133a3613313565b5b92915050565b7f4e487b7100000000000000000000000000000000000000000000000000000000600052603260045260246000fd5b7f4552433732313a207472616e736665722063616c6c6572206973206e6f74206f60008201527f776e6572206e6f7220617070726f766564000000000000000000000000000000602082015250565b6000613435603183612967565b9150613440826133d9565b604082019050919050565b6000602082019050818103600083015261346481613428565b9050919050565b7f455243373231456e756d657261626c653a206f776e657220696e646578206f7560008201527f74206f6620626f756e6473000000000000000000000000000000000000000000602082015250565b60006134c7602b83612967565b91506134d28261346b565b604082019050919050565b600060208201905081810360008301526134f6816134ba565b9050919050565b7f455243373231456e756d657261626c653a20676c6f62616c20696e646578206f60008201527f7574206f6620626f756e64730000000000000000000000000000000000000000602082015250565b6000613559602c83612967565b9150613564826134fd565b604082019050919050565b600060208201905081810360008301526135888161354c565b9050919050565b7f4552433732313a206f776e657220717565727920666f72206e6f6e657869737460008201527f656e7420746f6b656e0000000000000000000000000000000000000000000000602082015250565b60006135eb602983612967565b91506135f68261358f565b604082019050919050565b6000602082019050818103600083015261361a816135de565b9050919050565b7f4552433732313a2062616c616e636520717565727920666f7220746865207a6560008201527f726f206164647265737300000000000000000000000000000000000000000000602082015250565b600061367d602a83612967565b915061368882613621565b604082019050919050565b600060208201905081810360008301526136ac81613670565b9050919050565b7f4f776e61626c653a2063616c6c6572206973206e6f7420746865206f776e6572600082015250565b60006136e9602083612967565b91506136f4826136b3565b602082019050919050565b60006020820190508181036000830152613718816136dc565b9050919050565b60008190508160005260206000209050919050565b60006020601f8301049050919050565b600082821b905092915050565b6000600883026137817fffffffffffffffffffffffffffffffffffffffffffffffffffffffffffffffff82613744565b61378b8683613744565b95508019841693508086168417925050509392505050565b6000819050919050565b60006137c86137c36137be84612a0e565b6137a3565b612a0e565b9050919050565b6000819050919050565b6137e2836137ad565b6137f66137ee826137cf565b848454613751565b825550505050565b600090565b61380b6137fe565b6138168184846137d9565b505050565b5b8181101561383a5761382f600082613803565b60018101905061381c565b5050565b601f82111561387f576138508161371f565b61385984613734565b81016020851015613868578190505b61387c61387485613734565b83018261381b565b50505b505050565b600082821c905092915050565b60006138a260001984600802613884565b1980831691505092915050565b60006138bb8383613891565b9150826002028217905092915050565b6138d48261295c565b67ffffffffffffffff8111156138ed576138ec612c16565b5b6138f7825461312c565b61390282828561383e565b600060209050601f8311600181146139355760008415613923578287015190505b61392d85826138af565b865550613995565b601f1984166139438661371f565b60005b8281101561396b57848901518255600182019150602085019450602081019050613946565b868310156139885784890151613984601f891682613891565b8355505b6001600288020188555050505b505050505050565b600081905092915050565b600081546139b58161312c565b6139bf818661399d565b945060018216600081146139da57600181146139ef57613a22565b60ff1983168652811515820286019350613a22565b6139f88561371f565b60005b83811015613a1a578154818901526001820191506020810190506139fb565b838801955050505b50505092915050565b7f2f00000000000000000000000000000000000000000000000000000000000000600082015250565b6000613a6160018361399d565b9150613a6c82613a2b565b600182019050919050565b6000613a828261295c565b613a8c818561399d565b9350613a9c818560208601612978565b80840191505092915050565b7f2e6a736f6e000000000000000000000000000000000000000000000000000000600082015250565b6000613ade60058361399d565b9150613ae982613aa8565b600582019050919050565b6000613b0082866139a8565b9150613b0b82613a54565b9150613b178285613a77565b9150613b238284613a77565b9150613b2e82613ad1565b9150819050949350505050565b7f4f776e61626c653a206e6577206f776e657220697320746865207a65726f206160008201527f6464726573730000000000000000000000000000000000000000000000000000602082015250565b6000613b97602683612967565b9150613ba282613b3b565b604082019050919050565b60006020820190508181036000830152613bc681613b8a565b9050919050565b60008160601b9050919050565b6000613be582613bcd565b9050919050565b6000613bf782613bda565b9050919050565b613c0f613c0a82612a91565b613bec565b82525050565b6000819050919050565b613c30613c2b82612a0e565b613c15565b82525050565b6000613c428285613bfe565b601482019150613c528284613c1f565b6020820191508190509392505050565b7f4e487b7100000000000000000000000000000000000000000000000000000000600052601260045260246000fd5b6000613c9c82612a0e565b9150613ca783612a0e565b925082613cb757613cb6613c62565b5b828206905092915050565b7f4552433732313a206d696e7420746f20746865207a65726f2061646472657373600082015250565b6000613cf8602083612967565b9150613d0382613cc2565b602082019050919050565b60006020820190508181036000830152613d2781613ceb565b9050919050565b7f4552433732313a20746f6b656e20616c7265616479206d696e74656400000000600082015250565b6000613d64601c83612967565b9150613d6f82613d2e565b602082019050919050565b60006020820190508181036000830152613d9381613d57565b9050919050565b7f4552433732313a206f70657261746f7220717565727920666f72206e6f6e657860008201527f697374656e7420746f6b656e0000000000000000000000000000000000000000602082015250565b6000613df6602c83612967565b9150613e0182613d9a565b604082019050919050565b60006020820190508181036000830152613e2581613de9565b9050919050565b7f4552433732313a207472616e736665722066726f6d20696e636f72726563742060008201527f6f776e6572000000000000000000000000000000000000000000000000000000602082015250565b6000613e88602583612967565b9150613e9382613e2c565b604082019050919050565b60006020820190508181036000830152613eb781613e7b565b9050919050565b7f4552433732313a207472616e7366657220746f20746865207a65726f2061646460008201527f7265737300000000000000000000000000000000000000000000000000000000602082015250565b6000613f1a602483612967565b9150613f2582613ebe565b604082019050919050565b60006020820190508181036000830152613f4981613f0d565b9050919050565b7f4552433732313a20617070726f766520746f2063616c6c657200000000000000600082015250565b6000613f86601983612967565b9150613f9182613f50565b602082019050919050565b60006020820190508181036000830152613fb581613f79565b9050919050565b7f4552433732313a207472616e7366657220746f206e6f6e20455243373231526560008201527f63656976657220696d706c656d656e7465720000000000000000000000000000602082015250565b6000614018603283612967565b915061402382613fbc565b604082019050919050565b600060208201905081810360008301526140478161400b565b9050919050565b600061405982612a0e565b91507fffffffffffffffffffffffffffffffffffffffffffffffffffffffffffffffff820361408b5761408a613313565b5b600182019050919050565b60006140a182612a0e565b91506140ac83612a0e565b9250826140bc576140bb613c62565b5b828204905092915050565b600081519050919050565b600082825260208201905092915050565b60006140ee826140c7565b6140f881856140d2565b9350614108818560208601612978565b614111816129a2565b840191505092915050565b60006080820190506141316000830187612aa3565b61413e6020830186612aa3565b61414b6040830185612b39565b818103606083015261415d81846140e3565b905095945050505050565b600081519050614177816128cd565b92915050565b60006020828403121561419357614192612897565b5b60006141a184828501614168565b91505092915050565b7f4e487b7100000000000000000000000000000000000000000000000000000000600052603160045260246000fdfea264697066735822122034883d776973d186ffd2517851e14cd65c29c0c9a60360770ec3bec1f04b48bc64736f6c63430008110033",
  "immutableReferences": {},
  "source": "// SPDX-License-Identifier: MIT\r\npragma solidity ^0.8.17;\r\n\r\nimport \"openzeppelin-solidity/contracts/token/ERC721/extensions/ERC721Enumerable.sol\";\r\nimport \"openzeppelin-solidity/contracts/access/Ownable.sol\";\r\nimport \"openzeppelin-solidity/contracts/utils/Strings.sol\";\r\n\r\ncontract Monster_NFT_Data is ERC721Enumerable, Ownable {\r\n    uint256 public constant MAX_TOKEN_COUNT = 60;\r\n    uint256 public mint_price = 1 ether;\r\n\r\n    string public metadataURI;\r\n\r\n    constructor(\r\n        string memory _name,\r\n        string memory _symbol,\r\n        string memory _metadataURI\r\n    ) ERC721(_name, _symbol) {\r\n        metadataURI = _metadataURI;\r\n    }\r\n\r\n    // token  \r\n    struct TokenData {\r\n        uint256 Rank;\r\n        uint256 Type;\r\n    }\r\n\r\n    // Token ID(uint)  TokenData \r\n    mapping(uint256 => TokenData) public TokenDatas;\r\n\r\n    //          [Rank ][Type]\r\n    uint256[4][4] public tokenCount;\r\n\r\n    // mintToken     CA   NFT   \r\n    function mintToken() public payable {\r\n        //     \r\n        require(msg.value > mint_price);\r\n        //     \r\n        require(MAX_TOKEN_COUNT > ERC721Enumerable.totalSupply());\r\n\r\n        //   1      .\r\n        uint256 tokenId = ERC721Enumerable.totalSupply() + 1;\r\n\r\n        // tokenId  Rank Type   TokenData \r\n        TokenData memory random = getRandomTokenData(msg.sender, tokenId); //   \r\n        //   +1   \r\n        TokenDatas[tokenId] = random;\r\n\r\n        //   Rank Type  Token       \r\n        tokenCount[TokenDatas[tokenId].Rank - 1][\r\n            TokenDatas[tokenId].Type - 1\r\n        ] += 1;\r\n\r\n        // CA =>   ,     .\r\n        payable(Ownable.owner()).transfer(msg.value);\r\n\r\n        // mintToken    NFT \r\n        _mint(msg.sender, tokenId);\r\n    }\r\n\r\n    // TokenData   \r\n    function getRandomTokenData(address _owner, uint256 _tokenId)\r\n        private\r\n        pure\r\n        returns (TokenData memory)\r\n    {\r\n        uint256 randomNum = uint256(\r\n            keccak256(abi.encodePacked(_owner, _tokenId))\r\n        ) % 60;\r\n\r\n        //    \r\n        TokenData memory data;\r\n\r\n        //    (Rank)      \r\n        // 4 + 8(12)+12(24)\r\n        if (randomNum < 4) {\r\n            if (randomNum == 1) {\r\n                data.Rank = 4;\r\n                data.Type = 4;\r\n            } else if (randomNum == 2) {\r\n                data.Rank = 4;\r\n                data.Type = 3;\r\n            } else if (randomNum == 3) {\r\n                data.Rank = 4;\r\n                data.Type = 2;\r\n            } else {\r\n                data.Rank = 4;\r\n                data.Type = 1;\r\n            }\r\n        } else if (randomNum < 12) {\r\n            if (randomNum < 6) {\r\n                data.Rank = 3;\r\n                data.Type = 4;\r\n            } else if (randomNum < 8) {\r\n                data.Rank = 3;\r\n                data.Type = 3;\r\n            } else if (randomNum < 10) {\r\n                data.Rank = 3;\r\n                data.Type = 2;\r\n            } else {\r\n                data.Rank = 3;\r\n                data.Type = 1;\r\n            }\r\n        } else if (randomNum < 28) {\r\n            if (randomNum < 16) {\r\n                data.Rank = 2;\r\n                data.Type = 4;\r\n            } else if (randomNum < 20) {\r\n                data.Rank = 2;\r\n                data.Type = 3;\r\n            } else if (randomNum < 24) {\r\n                data.Rank = 2;\r\n                data.Type = 2;\r\n            } else {\r\n                data.Rank = 2;\r\n                data.Type = 1;\r\n            }\r\n        } else {\r\n            if (randomNum < 36) {\r\n                data.Rank = 1;\r\n                data.Type = 4;\r\n            } else if (randomNum < 44) {\r\n                data.Rank = 1;\r\n                data.Type = 3;\r\n            } else if (randomNum < 52) {\r\n                data.Rank = 1;\r\n                data.Type = 2;\r\n            } else {\r\n                data.Rank = 1;\r\n                data.Type = 1;\r\n            }\r\n        }\r\n        return data;\r\n    }\r\n\r\n    function tokenURI(uint256 _tokenId)\r\n        public\r\n        view\r\n        override\r\n        returns (string memory)\r\n    {\r\n        // Rank Type json   .\r\n        // metadataURI : nft     URI    ( = URL    baseURL  .)\r\n        // uint      uint bytes ,   . (  import  toString)\r\n        string memory Rank = Strings.toString(TokenDatas[_tokenId].Rank);\r\n        string memory Type = Strings.toString(TokenDatas[_tokenId].Type);\r\n\r\n        // http://localhost:3000/metadata/1(Rank)/3(Type).json   .\r\n        return string(abi.encodePacked(metadataURI, \"/\", Rank, Type, \".json\"));\r\n    }\r\n\r\n    //  metadataURI     \r\n    //         .\r\n    // onlyOwner :      .\r\n    function setMetadataURI(string memory _uri) public onlyOwner {\r\n        metadataURI = _uri;\r\n    }\r\n\r\n    // TokenData Rank  \r\n    function getTokenRank(uint256 _tokenId) public view returns (uint256) {\r\n        return TokenDatas[_tokenId].Rank;\r\n    }\r\n\r\n    // TokenData Type  \r\n    function getTokenType(uint256 _tokenId) public view returns (uint256) {\r\n        return TokenDatas[_tokenId].Type;\r\n    }\r\n\r\n    //     \r\n    //    return   getter   .\r\n    //   return  view   .\r\n    function getTokenCount() public view returns (uint256[4][4] memory) {\r\n        return tokenCount;\r\n    }\r\n}\r\n",
  "sourcePath": "C:\\Users\\HY\\Desktop\\nft_toy_project\\contracts\\Monster_NFT_Data.sol",
  "compiler": {
    "name": "solc",
    "version": "0.8.17+commit.8df45f5f.Emscripten.clang"
  },
  "schemaVersion": "3.4.11",
  "updatedAt": "2022-12-23T06:56:08.454Z",
  "devdoc": {
    "kind": "dev",
    "methods": {
      "approve(address,uint256)": {
        "details": "See {IERC721-approve}."
      },
      "balanceOf(address)": {
        "details": "See {IERC721-balanceOf}."
      },
      "getApproved(uint256)": {
        "details": "See {IERC721-getApproved}."
      },
      "isApprovedForAll(address,address)": {
        "details": "See {IERC721-isApprovedForAll}."
      },
      "name()": {
        "details": "See {IERC721Metadata-name}."
      },
      "owner()": {
        "details": "Returns the address of the current owner."
      },
      "ownerOf(uint256)": {
        "details": "See {IERC721-ownerOf}."
      },
      "renounceOwnership()": {
        "details": "Leaves the contract without owner. It will not be possible to call `onlyOwner` functions anymore. Can only be called by the current owner. NOTE: Renouncing ownership will leave the contract without an owner, thereby removing any functionality that is only available to the owner."
      },
      "safeTransferFrom(address,address,uint256)": {
        "details": "See {IERC721-safeTransferFrom}."
      },
      "safeTransferFrom(address,address,uint256,bytes)": {
        "details": "See {IERC721-safeTransferFrom}."
      },
      "setApprovalForAll(address,bool)": {
        "details": "See {IERC721-setApprovalForAll}."
      },
      "supportsInterface(bytes4)": {
        "details": "See {IERC165-supportsInterface}."
      },
      "symbol()": {
        "details": "See {IERC721Metadata-symbol}."
      },
      "tokenByIndex(uint256)": {
        "details": "See {IERC721Enumerable-tokenByIndex}."
      },
      "tokenOfOwnerByIndex(address,uint256)": {
        "details": "See {IERC721Enumerable-tokenOfOwnerByIndex}."
      },
      "totalSupply()": {
        "details": "See {IERC721Enumerable-totalSupply}."
      },
      "transferFrom(address,address,uint256)": {
        "details": "See {IERC721-transferFrom}."
      },
      "transferOwnership(address)": {
        "details": "Transfers ownership of the contract to a new account (`newOwner`). Can only be called by the current owner."
      }
    },
    "version": 1
  },
  "userdoc": {
    "kind": "user",
    "methods": {},
    "version": 1
  }
}