{
  "contractName": "NFTtoken2",
  "abi": [
    {
      "inputs": [
        {
          "internalType": "string",
          "name": "_name",
          "type": "string"
        },
        {
          "internalType": "string",
          "name": "_symbol",
          "type": "string"
        },
        {
          "internalType": "string",
          "name": "_metadataURI",
          "type": "string"
        }
      ],
      "stateMutability": "nonpayable",
      "type": "constructor"
    },
    {
      "anonymous": false,
      "inputs": [
        {
          "indexed": true,
          "internalType": "address",
          "name": "owner",
          "type": "address"
        },
        {
          "indexed": true,
          "internalType": "address",
          "name": "approved",
          "type": "address"
        },
        {
          "indexed": true,
          "internalType": "uint256",
          "name": "tokenId",
          "type": "uint256"
        }
      ],
      "name": "Approval",
      "type": "event"
    },
    {
      "anonymous": false,
      "inputs": [
        {
          "indexed": true,
          "internalType": "address",
          "name": "owner",
          "type": "address"
        },
        {
          "indexed": true,
          "internalType": "address",
          "name": "operator",
          "type": "address"
        },
        {
          "indexed": false,
          "internalType": "bool",
          "name": "approved",
          "type": "bool"
        }
      ],
      "name": "ApprovalForAll",
      "type": "event"
    },
    {
      "anonymous": false,
      "inputs": [
        {
          "indexed": true,
          "internalType": "address",
          "name": "previousOwner",
          "type": "address"
        },
        {
          "indexed": true,
          "internalType": "address",
          "name": "newOwner",
          "type": "address"
        }
      ],
      "name": "OwnershipTransferred",
      "type": "event"
    },
    {
      "anonymous": false,
      "inputs": [
        {
          "indexed": true,
          "internalType": "address",
          "name": "from",
          "type": "address"
        },
        {
          "indexed": true,
          "internalType": "address",
          "name": "to",
          "type": "address"
        },
        {
          "indexed": true,
          "internalType": "uint256",
          "name": "tokenId",
          "type": "uint256"
        }
      ],
      "name": "Transfer",
      "type": "event"
    },
    {
      "anonymous": false,
      "inputs": [
        {
          "indexed": false,
          "internalType": "address",
          "name": "nftTokenAddress",
          "type": "address"
        },
        {
          "indexed": false,
          "internalType": "uint256",
          "name": "nftTokenNum",
          "type": "uint256"
        }
      ],
      "name": "nftTokenList",
      "type": "event"
    },
    {
      "inputs": [],
      "name": "MAX_TOKEN_COUNT",
      "outputs": [
        {
          "internalType": "uint256",
          "name": "",
          "type": "uint256"
        }
      ],
      "stateMutability": "view",
      "type": "function"
    },
    {
      "inputs": [
        {
          "internalType": "address",
          "name": "to",
          "type": "address"
        },
        {
          "internalType": "uint256",
          "name": "tokenId",
          "type": "uint256"
        }
      ],
      "name": "approve",
      "outputs": [],
      "stateMutability": "nonpayable",
      "type": "function"
    },
    {
      "inputs": [
        {
          "internalType": "address",
          "name": "owner",
          "type": "address"
        }
      ],
      "name": "balanceOf",
      "outputs": [
        {
          "internalType": "uint256",
          "name": "",
          "type": "uint256"
        }
      ],
      "stateMutability": "view",
      "type": "function"
    },
    {
      "inputs": [
        {
          "internalType": "uint256",
          "name": "tokenId",
          "type": "uint256"
        }
      ],
      "name": "getApproved",
      "outputs": [
        {
          "internalType": "address",
          "name": "",
          "type": "address"
        }
      ],
      "stateMutability": "view",
      "type": "function"
    },
    {
      "inputs": [
        {
          "internalType": "address",
          "name": "owner",
          "type": "address"
        },
        {
          "internalType": "address",
          "name": "operator",
          "type": "address"
        }
      ],
      "name": "isApprovedForAll",
      "outputs": [
        {
          "internalType": "bool",
          "name": "",
          "type": "bool"
        }
      ],
      "stateMutability": "view",
      "type": "function"
    },
    {
      "inputs": [],
      "name": "metadataURI",
      "outputs": [
        {
          "internalType": "string",
          "name": "",
          "type": "string"
        }
      ],
      "stateMutability": "view",
      "type": "function"
    },
    {
      "inputs": [],
      "name": "mint_price",
      "outputs": [
        {
          "internalType": "uint256",
          "name": "",
          "type": "uint256"
        }
      ],
      "stateMutability": "view",
      "type": "function"
    },
    {
      "inputs": [],
      "name": "name",
      "outputs": [
        {
          "internalType": "string",
          "name": "",
          "type": "string"
        }
      ],
      "stateMutability": "view",
      "type": "function"
    },
    {
      "inputs": [],
      "name": "owner",
      "outputs": [
        {
          "internalType": "address",
          "name": "",
          "type": "address"
        }
      ],
      "stateMutability": "view",
      "type": "function"
    },
    {
      "inputs": [
        {
          "internalType": "uint256",
          "name": "tokenId",
          "type": "uint256"
        }
      ],
      "name": "ownerOf",
      "outputs": [
        {
          "internalType": "address",
          "name": "",
          "type": "address"
        }
      ],
      "stateMutability": "view",
      "type": "function"
    },
    {
      "inputs": [],
      "name": "renounceOwnership",
      "outputs": [],
      "stateMutability": "nonpayable",
      "type": "function"
    },
    {
      "inputs": [
        {
          "internalType": "address",
          "name": "from",
          "type": "address"
        },
        {
          "internalType": "address",
          "name": "to",
          "type": "address"
        },
        {
          "internalType": "uint256",
          "name": "tokenId",
          "type": "uint256"
        }
      ],
      "name": "safeTransferFrom",
      "outputs": [],
      "stateMutability": "nonpayable",
      "type": "function"
    },
    {
      "inputs": [
        {
          "internalType": "address",
          "name": "from",
          "type": "address"
        },
        {
          "internalType": "address",
          "name": "to",
          "type": "address"
        },
        {
          "internalType": "uint256",
          "name": "tokenId",
          "type": "uint256"
        },
        {
          "internalType": "bytes",
          "name": "_data",
          "type": "bytes"
        }
      ],
      "name": "safeTransferFrom",
      "outputs": [],
      "stateMutability": "nonpayable",
      "type": "function"
    },
    {
      "inputs": [
        {
          "internalType": "address",
          "name": "operator",
          "type": "address"
        },
        {
          "internalType": "bool",
          "name": "approved",
          "type": "bool"
        }
      ],
      "name": "setApprovalForAll",
      "outputs": [],
      "stateMutability": "nonpayable",
      "type": "function"
    },
    {
      "inputs": [
        {
          "internalType": "bytes4",
          "name": "interfaceId",
          "type": "bytes4"
        }
      ],
      "name": "supportsInterface",
      "outputs": [
        {
          "internalType": "bool",
          "name": "",
          "type": "bool"
        }
      ],
      "stateMutability": "view",
      "type": "function"
    },
    {
      "inputs": [],
      "name": "symbol",
      "outputs": [
        {
          "internalType": "string",
          "name": "",
          "type": "string"
        }
      ],
      "stateMutability": "view",
      "type": "function"
    },
    {
      "inputs": [
        {
          "internalType": "uint256",
          "name": "index",
          "type": "uint256"
        }
      ],
      "name": "tokenByIndex",
      "outputs": [
        {
          "internalType": "uint256",
          "name": "",
          "type": "uint256"
        }
      ],
      "stateMutability": "view",
      "type": "function"
    },
    {
      "inputs": [
        {
          "internalType": "address",
          "name": "owner",
          "type": "address"
        },
        {
          "internalType": "uint256",
          "name": "index",
          "type": "uint256"
        }
      ],
      "name": "tokenOfOwnerByIndex",
      "outputs": [
        {
          "internalType": "uint256",
          "name": "",
          "type": "uint256"
        }
      ],
      "stateMutability": "view",
      "type": "function"
    },
    {
      "inputs": [],
      "name": "totalSupply",
      "outputs": [
        {
          "internalType": "uint256",
          "name": "",
          "type": "uint256"
        }
      ],
      "stateMutability": "view",
      "type": "function"
    },
    {
      "inputs": [
        {
          "internalType": "address",
          "name": "from",
          "type": "address"
        },
        {
          "internalType": "address",
          "name": "to",
          "type": "address"
        },
        {
          "internalType": "uint256",
          "name": "tokenId",
          "type": "uint256"
        }
      ],
      "name": "transferFrom",
      "outputs": [],
      "stateMutability": "nonpayable",
      "type": "function"
    },
    {
      "inputs": [
        {
          "internalType": "address",
          "name": "newOwner",
          "type": "address"
        }
      ],
      "name": "transferOwnership",
      "outputs": [],
      "stateMutability": "nonpayable",
      "type": "function"
    },
    {
      "inputs": [],
      "name": "mintToken",
      "outputs": [],
      "stateMutability": "payable",
      "type": "function"
    },
    {
      "inputs": [
        {
          "internalType": "uint256",
          "name": "_tokenId",
          "type": "uint256"
        }
      ],
      "name": "tokenURI",
      "outputs": [
        {
          "internalType": "string",
          "name": "",
          "type": "string"
        }
      ],
      "stateMutability": "view",
      "type": "function"
    },
    {
      "inputs": [
        {
          "internalType": "string",
          "name": "_uri",
          "type": "string"
        }
      ],
      "name": "setMetadataURI",
      "outputs": [],
      "stateMutability": "nonpayable",
      "type": "function"
    }
  ],
  "bytecode": "0x60806040526001600b553480156200001657600080fd5b50604051620044ce380380620044ce83398181016040528101906200003c919062000300565b828281600090816200004f919062000604565b50806001908162000061919062000604565b50505062000084620000786200009f60201b60201c565b620000a760201b60201c565b80600c908162000095919062000604565b50505050620006eb565b600033905090565b6000600a60009054906101000a900473ffffffffffffffffffffffffffffffffffffffff16905081600a60006101000a81548173ffffffffffffffffffffffffffffffffffffffff021916908373ffffffffffffffffffffffffffffffffffffffff1602179055508173ffffffffffffffffffffffffffffffffffffffff168173ffffffffffffffffffffffffffffffffffffffff167f8be0079c531659141344cd1fd0a4f28419497f9722a3daafe3b4186f6b6457e060405160405180910390a35050565b6000604051905090565b600080fd5b600080fd5b600080fd5b600080fd5b6000601f19601f8301169050919050565b7f4e487b7100000000000000000000000000000000000000000000000000000000600052604160045260246000fd5b620001d6826200018b565b810181811067ffffffffffffffff82111715620001f857620001f76200019c565b5b80604052505050565b60006200020d6200016d565b90506200021b8282620001cb565b919050565b600067ffffffffffffffff8211156200023e576200023d6200019c565b5b62000249826200018b565b9050602081019050919050565b60005b838110156200027657808201518184015260208101905062000259565b60008484015250505050565b600062000299620002938462000220565b62000201565b905082815260208101848484011115620002b857620002b762000186565b5b620002c584828562000256565b509392505050565b600082601f830112620002e557620002e462000181565b5b8151620002f784826020860162000282565b91505092915050565b6000806000606084860312156200031c576200031b62000177565b5b600084015167ffffffffffffffff8111156200033d576200033c6200017c565b5b6200034b86828701620002cd565b935050602084015167ffffffffffffffff8111156200036f576200036e6200017c565b5b6200037d86828701620002cd565b925050604084015167ffffffffffffffff811115620003a157620003a06200017c565b5b620003af86828701620002cd565b9150509250925092565b600081519050919050565b7f4e487b7100000000000000000000000000000000000000000000000000000000600052602260045260246000fd5b600060028204905060018216806200040c57607f821691505b602082108103620004225762000421620003c4565b5b50919050565b60008190508160005260206000209050919050565b60006020601f8301049050919050565b600082821b905092915050565b6000600883026200048c7fffffffffffffffffffffffffffffffffffffffffffffffffffffffffffffffff826200044d565b6200049886836200044d565b95508019841693508086168417925050509392505050565b6000819050919050565b6000819050919050565b6000620004e5620004df620004d984620004b0565b620004ba565b620004b0565b9050919050565b6000819050919050565b6200050183620004c4565b620005196200051082620004ec565b8484546200045a565b825550505050565b600090565b6200053062000521565b6200053d818484620004f6565b505050565b5b8181101562000565576200055960008262000526565b60018101905062000543565b5050565b601f821115620005b4576200057e8162000428565b62000589846200043d565b8101602085101562000599578190505b620005b1620005a8856200043d565b83018262000542565b50505b505050565b600082821c905092915050565b6000620005d960001984600802620005b9565b1980831691505092915050565b6000620005f48383620005c6565b9150826002028217905092915050565b6200060f82620003b9565b67ffffffffffffffff8111156200062b576200062a6200019c565b5b620006378254620003f3565b6200064482828562000569565b600060209050601f8311600181146200067c576000841562000667578287015190505b620006738582620005e6565b865550620006e3565b601f1984166200068c8662000428565b60005b82811015620006b6578489015182556001820191506020850194506020810190506200068f565b86831015620006d65784890151620006d2601f891682620005c6565b8355505b6001600288020188555050505b505050505050565b613dd380620006fb6000396000f3fe60806040526004361061014b5760003560e01c80636352211e116100b6578063a22cb4651161006f578063a22cb46514610485578063b88d4fde146104ae578063c87b56dd146104d7578063d0bbb0d714610514578063e985e9c51461053f578063f2fde38b1461057c5761014b565b80636352211e1461037557806370a08231146103b2578063715018a6146103ef578063750521f5146104065780638da5cb5b1461042f57806395d89b411461045a5761014b565b80631a4231a4116101085780631a4231a4146102745780632004ffd91461029f57806323b872dd146102a95780632f745c59146102d257806342842e0e1461030f5780634f6ccce7146103385761014b565b806301ffc9a71461015057806303ee438c1461018d57806306fdde03146101b8578063081812fc146101e3578063095ea7b31461022057806318160ddd14610249575b600080fd5b34801561015c57600080fd5b5061017760048036038101906101729190612549565b6105a5565b6040516101849190612591565b60405180910390f35b34801561019957600080fd5b506101a261061f565b6040516101af919061263c565b60405180910390f35b3480156101c457600080fd5b506101cd6106ad565b6040516101da919061263c565b60405180910390f35b3480156101ef57600080fd5b5061020a60048036038101906102059190612694565b61073f565b6040516102179190612702565b60405180910390f35b34801561022c57600080fd5b5061024760048036038101906102429190612749565b6107c4565b005b34801561025557600080fd5b5061025e6108db565b60405161026b9190612798565b60405180910390f35b34801561028057600080fd5b506102896108e8565b6040516102969190612798565b60405180910390f35b6102a76108ee565b005b3480156102b557600080fd5b506102d060048036038101906102cb91906127b3565b610a39565b005b3480156102de57600080fd5b506102f960048036038101906102f49190612749565b610a99565b6040516103069190612798565b60405180910390f35b34801561031b57600080fd5b50610336600480360381019061033191906127b3565b610b3e565b005b34801561034457600080fd5b5061035f600480360381019061035a9190612694565b610b5e565b60405161036c9190612798565b60405180910390f35b34801561038157600080fd5b5061039c60048036038101906103979190612694565b610bcf565b6040516103a99190612702565b60405180910390f35b3480156103be57600080fd5b506103d960048036038101906103d49190612806565b610c80565b6040516103e69190612798565b60405180910390f35b3480156103fb57600080fd5b50610404610d37565b005b34801561041257600080fd5b5061042d60048036038101906104289190612968565b610dbf565b005b34801561043b57600080fd5b50610444610dd2565b6040516104519190612702565b60405180910390f35b34801561046657600080fd5b5061046f610dfc565b60405161047c919061263c565b60405180910390f35b34801561049157600080fd5b506104ac60048036038101906104a791906129dd565b610e8e565b005b3480156104ba57600080fd5b506104d560048036038101906104d09190612abe565b610ea4565b005b3480156104e357600080fd5b506104fe60048036038101906104f99190612694565b610f06565b60405161050b919061263c565b60405180910390f35b34801561052057600080fd5b50610529610f40565b6040516105369190612798565b60405180910390f35b34801561054b57600080fd5b5061056660048036038101906105619190612b41565b610f45565b6040516105739190612591565b60405180910390f35b34801561058857600080fd5b506105a3600480360381019061059e9190612806565b610fd9565b005b60007f780e9d63000000000000000000000000000000000000000000000000000000007bffffffffffffffffffffffffffffffffffffffffffffffffffffffff1916827bffffffffffffffffffffffffffffffffffffffffffffffffffffffff191614806106185750610617826110d0565b5b9050919050565b600c805461062c90612bb0565b80601f016020809104026020016040519081016040528092919081815260200182805461065890612bb0565b80156106a55780601f1061067a576101008083540402835291602001916106a5565b820191906000526020600020905b81548152906001019060200180831161068857829003601f168201915b505050505081565b6060600080546106bc90612bb0565b80601f01602080910402602001604051908101604052809291908181526020018280546106e890612bb0565b80156107355780601f1061070a57610100808354040283529160200191610735565b820191906000526020600020905b81548152906001019060200180831161071857829003601f168201915b5050505050905090565b600061074a826111b2565b610789576040517f08c379a000000000000000000000000000000000000000000000000000000000815260040161078090612c53565b60405180910390fd5b6004600083815260200190815260200160002060009054906101000a900473ffffffffffffffffffffffffffffffffffffffff169050919050565b60006107cf82610bcf565b90508073ffffffffffffffffffffffffffffffffffffffff168373ffffffffffffffffffffffffffffffffffffffff160361083f576040517f08c379a000000000000000000000000000000000000000000000000000000000815260040161083690612ce5565b60405180910390fd5b8073ffffffffffffffffffffffffffffffffffffffff1661085e61121e565b73ffffffffffffffffffffffffffffffffffffffff16148061088d575061088c8161088761121e565b610f45565b5b6108cc576040517f08c379a00000000000000000000000000000000000000000000000000000000081526004016108c390612d77565b60405180910390fd5b6108d68383611226565b505050565b6000600880549050905090565b600b5481565b600b543411610932576040517f08c379a000000000000000000000000000000000000000000000000000000000815260040161092990612e09565b60405180910390fd5b61093a6108db565b603c1161097c576040517f08c379a000000000000000000000000000000000000000000000000000000000815260040161097390612e9b565b60405180910390fd5b600060016109886108db565b6109929190612eea565b905060006109a23383600d6112df565b90507f29d67ca671121902ae706cd40844afe4c94bb9f8a2d2d7c5fb541e4a7f9bd7b433826040516109d5929190612f1e565b60405180910390a16109e5610dd2565b73ffffffffffffffffffffffffffffffffffffffff166108fc349081150290604051600060405180830381858888f19350505050158015610a2a573d6000803e3d6000fd5b50610a35338261152d565b5050565b610a4a610a4461121e565b82611706565b610a89576040517f08c379a0000000000000000000000000000000000000000000000000000000008152600401610a8090612fb9565b60405180910390fd5b610a948383836117e4565b505050565b6000610aa483610c80565b8210610ae5576040517f08c379a0000000000000000000000000000000000000000000000000000000008152600401610adc9061304b565b60405180910390fd5b600660008473ffffffffffffffffffffffffffffffffffffffff1673ffffffffffffffffffffffffffffffffffffffff168152602001908152602001600020600083815260200190815260200160002054905092915050565b610b5983838360405180602001604052806000815250610ea4565b505050565b6000610b686108db565b8210610ba9576040517f08c379a0000000000000000000000000000000000000000000000000000000008152600401610ba0906130dd565b60405180910390fd5b60088281548110610bbd57610bbc6130fd565b5b90600052602060002001549050919050565b6000806002600084815260200190815260200160002060009054906101000a900473ffffffffffffffffffffffffffffffffffffffff169050600073ffffffffffffffffffffffffffffffffffffffff168173ffffffffffffffffffffffffffffffffffffffff1603610c77576040517f08c379a0000000000000000000000000000000000000000000000000000000008152600401610c6e9061319e565b60405180910390fd5b80915050919050565b60008073ffffffffffffffffffffffffffffffffffffffff168273ffffffffffffffffffffffffffffffffffffffff1603610cf0576040517f08c379a0000000000000000000000000000000000000000000000000000000008152600401610ce790613230565b60405180910390fd5b600360008373ffffffffffffffffffffffffffffffffffffffff1673ffffffffffffffffffffffffffffffffffffffff168152602001908152602001600020549050919050565b610d3f61121e565b73ffffffffffffffffffffffffffffffffffffffff16610d5d610dd2565b73ffffffffffffffffffffffffffffffffffffffff1614610db3576040517f08c379a0000000000000000000000000000000000000000000000000000000008152600401610daa9061329c565b60405180910390fd5b610dbd6000611a4a565b565b80600c9081610dce9190613468565b5050565b6000600a60009054906101000a900473ffffffffffffffffffffffffffffffffffffffff16905090565b606060018054610e0b90612bb0565b80601f0160208091040260200160405190810160405280929190818152602001828054610e3790612bb0565b8015610e845780601f10610e5957610100808354040283529160200191610e84565b820191906000526020600020905b815481529060010190602001808311610e6757829003601f168201915b5050505050905090565b610ea0610e9961121e565b8383611b10565b5050565b610eb5610eaf61121e565b83611706565b610ef4576040517f08c379a0000000000000000000000000000000000000000000000000000000008152600401610eeb90612fb9565b60405180910390fd5b610f0084848484611c7c565b50505050565b60606000610f1383611cd8565b9050600c81604051602001610f29929190613691565b604051602081830303815290604052915050919050565b603c81565b6000600560008473ffffffffffffffffffffffffffffffffffffffff1673ffffffffffffffffffffffffffffffffffffffff16815260200190815260200160002060008373ffffffffffffffffffffffffffffffffffffffff1673ffffffffffffffffffffffffffffffffffffffff16815260200190815260200160002060009054906101000a900460ff16905092915050565b610fe161121e565b73ffffffffffffffffffffffffffffffffffffffff16610fff610dd2565b73ffffffffffffffffffffffffffffffffffffffff1614611055576040517f08c379a000000000000000000000000000000000000000000000000000000000815260040161104c9061329c565b60405180910390fd5b600073ffffffffffffffffffffffffffffffffffffffff168173ffffffffffffffffffffffffffffffffffffffff16036110c4576040517f08c379a00000000000000000000000000000000000000000000000000000000081526004016110bb9061373d565b60405180910390fd5b6110cd81611a4a565b50565b60007f80ac58cd000000000000000000000000000000000000000000000000000000007bffffffffffffffffffffffffffffffffffffffffffffffffffffffff1916827bffffffffffffffffffffffffffffffffffffffffffffffffffffffff1916148061119b57507f5b5e139f000000000000000000000000000000000000000000000000000000007bffffffffffffffffffffffffffffffffffffffffffffffffffffffff1916827bffffffffffffffffffffffffffffffffffffffffffffffffffffffff1916145b806111ab57506111aa82611e38565b5b9050919050565b60008073ffffffffffffffffffffffffffffffffffffffff166002600084815260200190815260200160002060009054906101000a900473ffffffffffffffffffffffffffffffffffffffff1673ffffffffffffffffffffffffffffffffffffffff1614159050919050565b600033905090565b816004600083815260200190815260200160002060006101000a81548173ffffffffffffffffffffffffffffffffffffffff021916908373ffffffffffffffffffffffffffffffffffffffff160217905550808273ffffffffffffffffffffffffffffffffffffffff1661129983610bcf565b73ffffffffffffffffffffffffffffffffffffffff167f8c5be1e5ebec7d5bd14f71427d1e84f3dd0314c0f7b2291e5b200ac8c7c3b92560405160405180910390a45050565b600080606485856040516020016112f79291906137c6565b6040516020818303038152906040528051906020012060001c61131a9190613821565b905060001515600f60003373ffffffffffffffffffffffffffffffffffffffff1673ffffffffffffffffffffffffffffffffffffffff16815260200190815260200160002060010160009054906101000a900460ff161515036113c85760005b603c8110156113c25780846000018560000180549050815481106113a1576113a06130fd565b5b906000526020600020018190555080806113ba90613852565b91505061137a565b5061147e565b60005b600184600001805490506113df919061389a565b81101561147c5780820361143f57836000016001826113fe9190612eea565b8154811061140f5761140e6130fd565b5b90600052602060002001548460000182815481106114305761142f6130fd565b5b90600052602060002001819055505b83600001805480611453576114526138ce565b5b60019003818190600052602060002001600090559055808061147490613852565b9150506113cb565b505b60018360010160006101000a81548160ff02191690831515021790555082600f60003373ffffffffffffffffffffffffffffffffffffffff1673ffffffffffffffffffffffffffffffffffffffff16815260200190815260200160002060008201816000019080546114f192919061246e565b506001820160009054906101000a900460ff168160010160006101000a81548160ff021916908315150217905550905050809150509392505050565b600073ffffffffffffffffffffffffffffffffffffffff168273ffffffffffffffffffffffffffffffffffffffff160361159c576040517f08c379a000000000000000000000000000000000000000000000000000000000815260040161159390613949565b60405180910390fd5b6115a5816111b2565b156115e5576040517f08c379a00000000000000000000000000000000000000000000000000000000081526004016115dc906139b5565b60405180910390fd5b6115f160008383611ea2565b6001600360008473ffffffffffffffffffffffffffffffffffffffff1673ffffffffffffffffffffffffffffffffffffffff16815260200190815260200160002060008282546116419190612eea565b92505081905550816002600083815260200190815260200160002060006101000a81548173ffffffffffffffffffffffffffffffffffffffff021916908373ffffffffffffffffffffffffffffffffffffffff160217905550808273ffffffffffffffffffffffffffffffffffffffff16600073ffffffffffffffffffffffffffffffffffffffff167fddf252ad1be2c89b69c2b068fc378daa952ba7f163c4a11628f55a4df523b3ef60405160405180910390a461170260008383611fb4565b5050565b6000611711826111b2565b611750576040517f08c379a000000000000000000000000000000000000000000000000000000000815260040161174790613a47565b60405180910390fd5b600061175b83610bcf565b90508073ffffffffffffffffffffffffffffffffffffffff168473ffffffffffffffffffffffffffffffffffffffff16148061179d575061179c8185610f45565b5b806117db57508373ffffffffffffffffffffffffffffffffffffffff166117c38461073f565b73ffffffffffffffffffffffffffffffffffffffff16145b91505092915050565b8273ffffffffffffffffffffffffffffffffffffffff1661180482610bcf565b73ffffffffffffffffffffffffffffffffffffffff161461185a576040517f08c379a000000000000000000000000000000000000000000000000000000000815260040161185190613ad9565b60405180910390fd5b600073ffffffffffffffffffffffffffffffffffffffff168273ffffffffffffffffffffffffffffffffffffffff16036118c9576040517f08c379a00000000000000000000000000000000000000000000000000000000081526004016118c090613b6b565b60405180910390fd5b6118d4838383611ea2565b6118df600082611226565b6001600360008573ffffffffffffffffffffffffffffffffffffffff1673ffffffffffffffffffffffffffffffffffffffff168152602001908152602001600020600082825461192f919061389a565b925050819055506001600360008473ffffffffffffffffffffffffffffffffffffffff1673ffffffffffffffffffffffffffffffffffffffff16815260200190815260200160002060008282546119869190612eea565b92505081905550816002600083815260200190815260200160002060006101000a81548173ffffffffffffffffffffffffffffffffffffffff021916908373ffffffffffffffffffffffffffffffffffffffff160217905550808273ffffffffffffffffffffffffffffffffffffffff168473ffffffffffffffffffffffffffffffffffffffff167fddf252ad1be2c89b69c2b068fc378daa952ba7f163c4a11628f55a4df523b3ef60405160405180910390a4611a45838383611fb4565b505050565b6000600a60009054906101000a900473ffffffffffffffffffffffffffffffffffffffff16905081600a60006101000a81548173ffffffffffffffffffffffffffffffffffffffff021916908373ffffffffffffffffffffffffffffffffffffffff1602179055508173ffffffffffffffffffffffffffffffffffffffff168173ffffffffffffffffffffffffffffffffffffffff167f8be0079c531659141344cd1fd0a4f28419497f9722a3daafe3b4186f6b6457e060405160405180910390a35050565b8173ffffffffffffffffffffffffffffffffffffffff168373ffffffffffffffffffffffffffffffffffffffff1603611b7e576040517f08c379a0000000000000000000000000000000000000000000000000000000008152600401611b7590613bd7565b60405180910390fd5b80600560008573ffffffffffffffffffffffffffffffffffffffff1673ffffffffffffffffffffffffffffffffffffffff16815260200190815260200160002060008473ffffffffffffffffffffffffffffffffffffffff1673ffffffffffffffffffffffffffffffffffffffff16815260200190815260200160002060006101000a81548160ff0219169083151502179055508173ffffffffffffffffffffffffffffffffffffffff168373ffffffffffffffffffffffffffffffffffffffff167f17307eab39ab6107e8899845ad3d59bd9653f200f220920489ca2b5937696c3183604051611c6f9190612591565b60405180910390a3505050565b611c878484846117e4565b611c9384848484611fb9565b611cd2576040517f08c379a0000000000000000000000000000000000000000000000000000000008152600401611cc990613c69565b60405180910390fd5b50505050565b606060008203611d1f576040518060400160405280600181526020017f30000000000000000000000000000000000000000000000000000000000000008152509050611e33565b600082905060005b60008214611d51578080611d3a90613852565b915050600a82611d4a9190613c89565b9150611d27565b60008167ffffffffffffffff811115611d6d57611d6c61283d565b5b6040519080825280601f01601f191660200182016040528015611d9f5781602001600182028036833780820191505090505b5090505b60008514611e2c57600182611db8919061389a565b9150600a85611dc79190613821565b6030611dd39190612eea565b60f81b818381518110611de957611de86130fd565b5b60200101907effffffffffffffffffffffffffffffffffffffffffffffffffffffffffffff1916908160001a905350600a85611e259190613c89565b9450611da3565b8093505050505b919050565b60007f01ffc9a7000000000000000000000000000000000000000000000000000000007bffffffffffffffffffffffffffffffffffffffffffffffffffffffff1916827bffffffffffffffffffffffffffffffffffffffffffffffffffffffff1916149050919050565b611ead838383612140565b600073ffffffffffffffffffffffffffffffffffffffff168373ffffffffffffffffffffffffffffffffffffffff1603611eef57611eea81612145565b611f2e565b8173ffffffffffffffffffffffffffffffffffffffff168373ffffffffffffffffffffffffffffffffffffffff1614611f2d57611f2c838261218e565b5b5b600073ffffffffffffffffffffffffffffffffffffffff168273ffffffffffffffffffffffffffffffffffffffff1603611f7057611f6b816122fb565b611faf565b8273ffffffffffffffffffffffffffffffffffffffff168273ffffffffffffffffffffffffffffffffffffffff1614611fae57611fad82826123cc565b5b5b505050565b505050565b6000611fda8473ffffffffffffffffffffffffffffffffffffffff1661244b565b15612133578373ffffffffffffffffffffffffffffffffffffffff1663150b7a0261200361121e565b8786866040518563ffffffff1660e01b81526004016120259493929190613d0f565b6020604051808303816000875af192505050801561206157506040513d601f19601f8201168201806040525081019061205e9190613d70565b60015b6120e3573d8060008114612091576040519150601f19603f3d011682016040523d82523d6000602084013e612096565b606091505b5060008151036120db576040517f08c379a00000000000000000000000000000000000000000000000000000000081526004016120d290613c69565b60405180910390fd5b805181602001fd5b63150b7a0260e01b7bffffffffffffffffffffffffffffffffffffffffffffffffffffffff1916817bffffffffffffffffffffffffffffffffffffffffffffffffffffffff191614915050612138565b600190505b949350505050565b505050565b6008805490506009600083815260200190815260200160002081905550600881908060018154018082558091505060019003906000526020600020016000909190919091505550565b6000600161219b84610c80565b6121a5919061389a565b905060006007600084815260200190815260200160002054905081811461228a576000600660008673ffffffffffffffffffffffffffffffffffffffff1673ffffffffffffffffffffffffffffffffffffffff168152602001908152602001600020600084815260200190815260200160002054905080600660008773ffffffffffffffffffffffffffffffffffffffff1673ffffffffffffffffffffffffffffffffffffffff168152602001908152602001600020600084815260200190815260200160002081905550816007600083815260200190815260200160002081905550505b6007600084815260200190815260200160002060009055600660008573ffffffffffffffffffffffffffffffffffffffff1673ffffffffffffffffffffffffffffffffffffffff16815260200190815260200160002060008381526020019081526020016000206000905550505050565b6000600160088054905061230f919061389a565b905060006009600084815260200190815260200160002054905060006008838154811061233f5761233e6130fd565b5b906000526020600020015490508060088381548110612361576123606130fd565b5b9060005260206000200181905550816009600083815260200190815260200160002081905550600960008581526020019081526020016000206000905560088054806123b0576123af6138ce565b5b6001900381819060005260206000200160009055905550505050565b60006123d783610c80565b905081600660008573ffffffffffffffffffffffffffffffffffffffff1673ffffffffffffffffffffffffffffffffffffffff168152602001908152602001600020600083815260200190815260200160002081905550806007600084815260200190815260200160002081905550505050565b6000808273ffffffffffffffffffffffffffffffffffffffff163b119050919050565b8280548282559060005260206000209081019282156124af5760005260206000209182015b828111156124ae578254825591600101919060010190612493565b5b5090506124bc91906124c0565b5090565b5b808211156124d95760008160009055506001016124c1565b5090565b6000604051905090565b600080fd5b600080fd5b60007fffffffff0000000000000000000000000000000000000000000000000000000082169050919050565b612526816124f1565b811461253157600080fd5b50565b6000813590506125438161251d565b92915050565b60006020828403121561255f5761255e6124e7565b5b600061256d84828501612534565b91505092915050565b60008115159050919050565b61258b81612576565b82525050565b60006020820190506125a66000830184612582565b92915050565b600081519050919050565b600082825260208201905092915050565b60005b838110156125e65780820151818401526020810190506125cb565b60008484015250505050565b6000601f19601f8301169050919050565b600061260e826125ac565b61261881856125b7565b93506126288185602086016125c8565b612631816125f2565b840191505092915050565b600060208201905081810360008301526126568184612603565b905092915050565b6000819050919050565b6126718161265e565b811461267c57600080fd5b50565b60008135905061268e81612668565b92915050565b6000602082840312156126aa576126a96124e7565b5b60006126b88482850161267f565b91505092915050565b600073ffffffffffffffffffffffffffffffffffffffff82169050919050565b60006126ec826126c1565b9050919050565b6126fc816126e1565b82525050565b600060208201905061271760008301846126f3565b92915050565b612726816126e1565b811461273157600080fd5b50565b6000813590506127438161271d565b92915050565b600080604083850312156127605761275f6124e7565b5b600061276e85828601612734565b925050602061277f8582860161267f565b9150509250929050565b6127928161265e565b82525050565b60006020820190506127ad6000830184612789565b92915050565b6000806000606084860312156127cc576127cb6124e7565b5b60006127da86828701612734565b93505060206127eb86828701612734565b92505060406127fc8682870161267f565b9150509250925092565b60006020828403121561281c5761281b6124e7565b5b600061282a84828501612734565b91505092915050565b600080fd5b600080fd5b7f4e487b7100000000000000000000000000000000000000000000000000000000600052604160045260246000fd5b612875826125f2565b810181811067ffffffffffffffff821117156128945761289361283d565b5b80604052505050565b60006128a76124dd565b90506128b3828261286c565b919050565b600067ffffffffffffffff8211156128d3576128d261283d565b5b6128dc826125f2565b9050602081019050919050565b82818337600083830152505050565b600061290b612906846128b8565b61289d565b90508281526020810184848401111561292757612926612838565b5b6129328482856128e9565b509392505050565b600082601f83011261294f5761294e612833565b5b813561295f8482602086016128f8565b91505092915050565b60006020828403121561297e5761297d6124e7565b5b600082013567ffffffffffffffff81111561299c5761299b6124ec565b5b6129a88482850161293a565b91505092915050565b6129ba81612576565b81146129c557600080fd5b50565b6000813590506129d7816129b1565b92915050565b600080604083850312156129f4576129f36124e7565b5b6000612a0285828601612734565b9250506020612a13858286016129c8565b9150509250929050565b600067ffffffffffffffff821115612a3857612a3761283d565b5b612a41826125f2565b9050602081019050919050565b6000612a61612a5c84612a1d565b61289d565b905082815260208101848484011115612a7d57612a7c612838565b5b612a888482856128e9565b509392505050565b600082601f830112612aa557612aa4612833565b5b8135612ab5848260208601612a4e565b91505092915050565b60008060008060808587031215612ad857612ad76124e7565b5b6000612ae687828801612734565b9450506020612af787828801612734565b9350506040612b088782880161267f565b925050606085013567ffffffffffffffff811115612b2957612b286124ec565b5b612b3587828801612a90565b91505092959194509250565b60008060408385031215612b5857612b576124e7565b5b6000612b6685828601612734565b9250506020612b7785828601612734565b9150509250929050565b7f4e487b7100000000000000000000000000000000000000000000000000000000600052602260045260246000fd5b60006002820490506001821680612bc857607f821691505b602082108103612bdb57612bda612b81565b5b50919050565b7f4552433732313a20617070726f76656420717565727920666f72206e6f6e657860008201527f697374656e7420746f6b656e0000000000000000000000000000000000000000602082015250565b6000612c3d602c836125b7565b9150612c4882612be1565b604082019050919050565b60006020820190508181036000830152612c6c81612c30565b9050919050565b7f4552433732313a20617070726f76616c20746f2063757272656e74206f776e6560008201527f7200000000000000000000000000000000000000000000000000000000000000602082015250565b6000612ccf6021836125b7565b9150612cda82612c73565b604082019050919050565b60006020820190508181036000830152612cfe81612cc2565b9050919050565b7f4552433732313a20617070726f76652063616c6c6572206973206e6f74206f7760008201527f6e6572206e6f7220617070726f76656420666f7220616c6c0000000000000000602082015250565b6000612d616038836125b7565b9150612d6c82612d05565b604082019050919050565b60006020820190508181036000830152612d9081612d54565b9050919050565b7f596f7572206d696e74696e672076616c7565206973206c657373207468616e2060008201527f6f7572206d696e74696e67207374616e64617264000000000000000000000000602082015250565b6000612df36034836125b7565b9150612dfe82612d97565b604082019050919050565b60006020820190508181036000830152612e2281612de6565b9050919050565b7f596f75277665206578636565646564207468652076616c75652074686174207960008201527f6f752063616e206d696e74207065722064617900000000000000000000000000602082015250565b6000612e856033836125b7565b9150612e9082612e29565b604082019050919050565b60006020820190508181036000830152612eb481612e78565b9050919050565b7f4e487b7100000000000000000000000000000000000000000000000000000000600052601160045260246000fd5b6000612ef58261265e565b9150612f008361265e565b9250828201905080821115612f1857612f17612ebb565b5b92915050565b6000604082019050612f3360008301856126f3565b612f406020830184612789565b9392505050565b7f4552433732313a207472616e736665722063616c6c6572206973206e6f74206f60008201527f776e6572206e6f7220617070726f766564000000000000000000000000000000602082015250565b6000612fa36031836125b7565b9150612fae82612f47565b604082019050919050565b60006020820190508181036000830152612fd281612f96565b9050919050565b7f455243373231456e756d657261626c653a206f776e657220696e646578206f7560008201527f74206f6620626f756e6473000000000000000000000000000000000000000000602082015250565b6000613035602b836125b7565b915061304082612fd9565b604082019050919050565b6000602082019050818103600083015261306481613028565b9050919050565b7f455243373231456e756d657261626c653a20676c6f62616c20696e646578206f60008201527f7574206f6620626f756e64730000000000000000000000000000000000000000602082015250565b60006130c7602c836125b7565b91506130d28261306b565b604082019050919050565b600060208201905081810360008301526130f6816130ba565b9050919050565b7f4e487b7100000000000000000000000000000000000000000000000000000000600052603260045260246000fd5b7f4552433732313a206f776e657220717565727920666f72206e6f6e657869737460008201527f656e7420746f6b656e0000000000000000000000000000000000000000000000602082015250565b60006131886029836125b7565b91506131938261312c565b604082019050919050565b600060208201905081810360008301526131b78161317b565b9050919050565b7f4552433732313a2062616c616e636520717565727920666f7220746865207a6560008201527f726f206164647265737300000000000000000000000000000000000000000000602082015250565b600061321a602a836125b7565b9150613225826131be565b604082019050919050565b600060208201905081810360008301526132498161320d565b9050919050565b7f4f776e61626c653a2063616c6c6572206973206e6f7420746865206f776e6572600082015250565b60006132866020836125b7565b915061329182613250565b602082019050919050565b600060208201905081810360008301526132b581613279565b9050919050565b60008190508160005260206000209050919050565b60006020601f8301049050919050565b600082821b905092915050565b60006008830261331e7fffffffffffffffffffffffffffffffffffffffffffffffffffffffffffffffff826132e1565b61332886836132e1565b95508019841693508086168417925050509392505050565b6000819050919050565b600061336561336061335b8461265e565b613340565b61265e565b9050919050565b6000819050919050565b61337f8361334a565b61339361338b8261336c565b8484546132ee565b825550505050565b600090565b6133a861339b565b6133b3818484613376565b505050565b5b818110156133d7576133cc6000826133a0565b6001810190506133b9565b5050565b601f82111561341c576133ed816132bc565b6133f6846132d1565b81016020851015613405578190505b613419613411856132d1565b8301826133b8565b50505b505050565b600082821c905092915050565b600061343f60001984600802613421565b1980831691505092915050565b6000613458838361342e565b9150826002028217905092915050565b613471826125ac565b67ffffffffffffffff81111561348a5761348961283d565b5b6134948254612bb0565b61349f8282856133db565b600060209050601f8311600181146134d257600084156134c0578287015190505b6134ca858261344c565b865550613532565b601f1984166134e0866132bc565b60005b82811015613508578489015182556001820191506020850194506020810190506134e3565b868310156135255784890151613521601f89168261342e565b8355505b6001600288020188555050505b505050505050565b600081905092915050565b6000815461355281612bb0565b61355c818661353a565b94506001821660008114613577576001811461358c576135bf565b60ff19831686528115158202860193506135bf565b613595856132bc565b60005b838110156135b757815481890152600182019150602081019050613598565b838801955050505b50505092915050565b7f2f00000000000000000000000000000000000000000000000000000000000000600082015250565b60006135fe60018361353a565b9150613609826135c8565b600182019050919050565b600061361f826125ac565b613629818561353a565b93506136398185602086016125c8565b80840191505092915050565b7f2e6a736f6e000000000000000000000000000000000000000000000000000000600082015250565b600061367b60058361353a565b915061368682613645565b600582019050919050565b600061369d8285613545565b91506136a8826135f1565b91506136b48284613614565b91506136bf8261366e565b91508190509392505050565b7f4f776e61626c653a206e6577206f776e657220697320746865207a65726f206160008201527f6464726573730000000000000000000000000000000000000000000000000000602082015250565b60006137276026836125b7565b9150613732826136cb565b604082019050919050565b600060208201905081810360008301526137568161371a565b9050919050565b60008160601b9050919050565b60006137758261375d565b9050919050565b60006137878261376a565b9050919050565b61379f61379a826126e1565b61377c565b82525050565b6000819050919050565b6137c06137bb8261265e565b6137a5565b82525050565b60006137d2828561378e565b6014820191506137e282846137af565b6020820191508190509392505050565b7f4e487b7100000000000000000000000000000000000000000000000000000000600052601260045260246000fd5b600061382c8261265e565b91506138378361265e565b925082613847576138466137f2565b5b828206905092915050565b600061385d8261265e565b91507fffffffffffffffffffffffffffffffffffffffffffffffffffffffffffffffff820361388f5761388e612ebb565b5b600182019050919050565b60006138a58261265e565b91506138b08361265e565b92508282039050818111156138c8576138c7612ebb565b5b92915050565b7f4e487b7100000000000000000000000000000000000000000000000000000000600052603160045260246000fd5b7f4552433732313a206d696e7420746f20746865207a65726f2061646472657373600082015250565b60006139336020836125b7565b915061393e826138fd565b602082019050919050565b6000602082019050818103600083015261396281613926565b9050919050565b7f4552433732313a20746f6b656e20616c7265616479206d696e74656400000000600082015250565b600061399f601c836125b7565b91506139aa82613969565b602082019050919050565b600060208201905081810360008301526139ce81613992565b9050919050565b7f4552433732313a206f70657261746f7220717565727920666f72206e6f6e657860008201527f697374656e7420746f6b656e0000000000000000000000000000000000000000602082015250565b6000613a31602c836125b7565b9150613a3c826139d5565b604082019050919050565b60006020820190508181036000830152613a6081613a24565b9050919050565b7f4552433732313a207472616e736665722066726f6d20696e636f72726563742060008201527f6f776e6572000000000000000000000000000000000000000000000000000000602082015250565b6000613ac36025836125b7565b9150613ace82613a67565b604082019050919050565b60006020820190508181036000830152613af281613ab6565b9050919050565b7f4552433732313a207472616e7366657220746f20746865207a65726f2061646460008201527f7265737300000000000000000000000000000000000000000000000000000000602082015250565b6000613b556024836125b7565b9150613b6082613af9565b604082019050919050565b60006020820190508181036000830152613b8481613b48565b9050919050565b7f4552433732313a20617070726f766520746f2063616c6c657200000000000000600082015250565b6000613bc16019836125b7565b9150613bcc82613b8b565b602082019050919050565b60006020820190508181036000830152613bf081613bb4565b9050919050565b7f4552433732313a207472616e7366657220746f206e6f6e20455243373231526560008201527f63656976657220696d706c656d656e7465720000000000000000000000000000602082015250565b6000613c536032836125b7565b9150613c5e82613bf7565b604082019050919050565b60006020820190508181036000830152613c8281613c46565b9050919050565b6000613c948261265e565b9150613c9f8361265e565b925082613caf57613cae6137f2565b5b828204905092915050565b600081519050919050565b600082825260208201905092915050565b6000613ce182613cba565b613ceb8185613cc5565b9350613cfb8185602086016125c8565b613d04816125f2565b840191505092915050565b6000608082019050613d2460008301876126f3565b613d3160208301866126f3565b613d3e6040830185612789565b8181036060830152613d508184613cd6565b905095945050505050565b600081519050613d6a8161251d565b92915050565b600060208284031215613d8657613d856124e7565b5b6000613d9484828501613d5b565b9150509291505056fea2646970667358221220fb9ec8ce1f62c2c3175fcb2e730647316e4fdd434728b816cbb1afd947442e8464736f6c63430008110033",
  "immutableReferences": {},
  "source": "// SPDX-License-Identifier: MIT\r\npragma solidity ^0.8.17;\r\nimport \"../node_modules/openzeppelin-solidity/contracts/token/ERC721/extensions/ERC721Enumerable.sol\";\r\nimport \"../node_modules/openzeppelin-solidity/contracts/access/Ownable.sol\";\r\nimport \"../node_modules/openzeppelin-solidity/contracts/utils/Strings.sol\";\r\n\r\ncontract NFTtoken2 is ERC721Enumerable, Ownable {\r\n    //   NFT  \r\n    event nftTokenList(address nftTokenAddress, uint256 nftTokenNum);\r\n    // NFT \r\n    uint256 public constant MAX_TOKEN_COUNT = 60;\r\n    // mint  \r\n    uint256 public mint_price = 1 wei;\r\n    // meta URI\r\n    string public metadataURI;\r\n\r\n    constructor(\r\n        string memory _name,\r\n        string memory _symbol,\r\n        string memory _metadataURI\r\n    ) ERC721(_name, _symbol) {\r\n        metadataURI = _metadataURI;\r\n    }\r\n\r\n    struct userRandomGetNFT {\r\n        uint256[] userNFTTokenIndex;\r\n        bool randomSecond;\r\n    }\r\n    //         .\r\n    userRandomGetNFT userNFT;\r\n    // 1~60   \r\n    mapping(address => userRandomGetNFT) userRandomNFTs;\r\n\r\n    //  \r\n    function mintToken() public payable {\r\n        require(\r\n            msg.value > mint_price,\r\n            \"Your minting value is less than our minting standard\"\r\n        );\r\n        require(\r\n            MAX_TOKEN_COUNT > totalSupply(),\r\n            \"You've exceeded the value that you can mint per day\"\r\n        );\r\n\r\n        uint256 tokenId = totalSupply() + 1;\r\n        uint256 randomnum = getRandomTokenData(msg.sender, tokenId, userNFT);\r\n        emit nftTokenList(msg.sender, randomnum);\r\n        payable(Ownable.owner()).transfer(msg.value);\r\n        _mint(msg.sender, randomnum);\r\n    }\r\n\r\n    function getRandomTokenData(\r\n        address _owner,\r\n        uint256 _tokenId,\r\n        userRandomGetNFT storage _userNFT\r\n    ) private returns (uint256) {\r\n        //   \r\n        uint256 randomNum = uint256(\r\n            keccak256(abi.encodePacked(_owner, _tokenId))\r\n        ) % 100;\r\n        //     60 \r\n        //            \r\n        //   userRandomGetNFT    pop push   \r\n        //    push pop       .\r\n        if (userRandomNFTs[msg.sender].randomSecond == false) {\r\n            for (uint256 i = 0; i < 60; i++) {\r\n                _userNFT.userNFTTokenIndex[\r\n                    _userNFT.userNFTTokenIndex.length\r\n                ] = i;\r\n            }\r\n        } else {\r\n            //    \r\n            //     length - 1   \r\n            for (\r\n                uint256 i = 0;\r\n                i < _userNFT.userNFTTokenIndex.length - 1;\r\n                i++\r\n            ) {\r\n                if (randomNum == i) {\r\n                    _userNFT.userNFTTokenIndex[i] = _userNFT.userNFTTokenIndex[\r\n                        i + 1\r\n                    ];\r\n                }\r\n                _userNFT.userNFTTokenIndex.pop();\r\n            }\r\n        }\r\n        _userNFT.randomSecond = true;\r\n        userRandomNFTs[msg.sender] = _userNFT;\r\n        return randomNum;\r\n    }\r\n\r\n    function tokenURI(uint256 _tokenId)\r\n        public\r\n        view\r\n        override\r\n        returns (string memory)\r\n    {\r\n        string memory _tokenIdString = string(Strings.toString(_tokenId));\r\n        return\r\n            string(abi.encodePacked(metadataURI, \"/\", _tokenIdString, \".json\"));\r\n    }\r\n\r\n    function setMetadataURI(string memory _uri) public {\r\n        metadataURI = _uri;\r\n    }\r\n\r\n    // function getTokenCount() public view returns (uint256[] memory) {\r\n    //     return tokenCount;\r\n    // }\r\n}\r\n",
  "sourcePath": "C:\\Users\\HY\\Desktop\\nft_toy_project\\contracts\\toy.sol",
  "compiler": {
    "name": "solc",
    "version": "0.8.17+commit.8df45f5f.Emscripten.clang"
  },
  "schemaVersion": "3.4.11",
  "updatedAt": "2022-12-22T05:22:42.303Z",
  "devdoc": {
    "kind": "dev",
    "methods": {
      "approve(address,uint256)": {
        "details": "See {IERC721-approve}."
      },
      "balanceOf(address)": {
        "details": "See {IERC721-balanceOf}."
      },
      "getApproved(uint256)": {
        "details": "See {IERC721-getApproved}."
      },
      "isApprovedForAll(address,address)": {
        "details": "See {IERC721-isApprovedForAll}."
      },
      "name()": {
        "details": "See {IERC721Metadata-name}."
      },
      "owner()": {
        "details": "Returns the address of the current owner."
      },
      "ownerOf(uint256)": {
        "details": "See {IERC721-ownerOf}."
      },
      "renounceOwnership()": {
        "details": "Leaves the contract without owner. It will not be possible to call `onlyOwner` functions anymore. Can only be called by the current owner. NOTE: Renouncing ownership will leave the contract without an owner, thereby removing any functionality that is only available to the owner."
      },
      "safeTransferFrom(address,address,uint256)": {
        "details": "See {IERC721-safeTransferFrom}."
      },
      "safeTransferFrom(address,address,uint256,bytes)": {
        "details": "See {IERC721-safeTransferFrom}."
      },
      "setApprovalForAll(address,bool)": {
        "details": "See {IERC721-setApprovalForAll}."
      },
      "supportsInterface(bytes4)": {
        "details": "See {IERC165-supportsInterface}."
      },
      "symbol()": {
        "details": "See {IERC721Metadata-symbol}."
      },
      "tokenByIndex(uint256)": {
        "details": "See {IERC721Enumerable-tokenByIndex}."
      },
      "tokenOfOwnerByIndex(address,uint256)": {
        "details": "See {IERC721Enumerable-tokenOfOwnerByIndex}."
      },
      "totalSupply()": {
        "details": "See {IERC721Enumerable-totalSupply}."
      },
      "transferFrom(address,address,uint256)": {
        "details": "See {IERC721-transferFrom}."
      },
      "transferOwnership(address)": {
        "details": "Transfers ownership of the contract to a new account (`newOwner`). Can only be called by the current owner."
      }
    },
    "version": 1
  },
  "userdoc": {
    "kind": "user",
    "methods": {},
    "version": 1
  }
}