{
  "contractName": "NTF_Shop",
  "abi": [
    {
      "inputs": [
        {
          "internalType": "address",
          "name": "_tokenAddress",
          "type": "address"
        }
      ],
      "stateMutability": "nonpayable",
      "type": "constructor"
    },
    {
      "inputs": [
        {
          "internalType": "uint256",
          "name": "",
          "type": "uint256"
        }
      ],
      "name": "SellTokenList",
      "outputs": [
        {
          "internalType": "uint256",
          "name": "",
          "type": "uint256"
        }
      ],
      "stateMutability": "view",
      "type": "function"
    },
    {
      "inputs": [],
      "name": "Token",
      "outputs": [
        {
          "internalType": "contract Monster_NFT_Data",
          "name": "",
          "type": "address"
        }
      ],
      "stateMutability": "view",
      "type": "function"
    },
    {
      "inputs": [
        {
          "internalType": "uint256",
          "name": "",
          "type": "uint256"
        }
      ],
      "name": "tokenPrices",
      "outputs": [
        {
          "internalType": "uint256",
          "name": "",
          "type": "uint256"
        }
      ],
      "stateMutability": "view",
      "type": "function"
    },
    {
      "inputs": [
        {
          "internalType": "uint256",
          "name": "_tokenId",
          "type": "uint256"
        },
        {
          "internalType": "uint256",
          "name": "_price",
          "type": "uint256"
        }
      ],
      "name": "SellsToken",
      "outputs": [],
      "stateMutability": "nonpayable",
      "type": "function"
    },
    {
      "inputs": [
        {
          "internalType": "uint256",
          "name": "_tokenId",
          "type": "uint256"
        }
      ],
      "name": "PurchaseToken",
      "outputs": [],
      "stateMutability": "payable",
      "type": "function"
    },
    {
      "inputs": [],
      "name": "getSellTokenList",
      "outputs": [
        {
          "components": [
            {
              "internalType": "uint256",
              "name": "tokenId",
              "type": "uint256"
            },
            {
              "internalType": "uint256",
              "name": "Rank",
              "type": "uint256"
            },
            {
              "internalType": "uint256",
              "name": "Type",
              "type": "uint256"
            },
            {
              "internalType": "uint256",
              "name": "price",
              "type": "uint256"
            }
          ],
          "internalType": "struct NTF_Shop.TokenInfo[]",
          "name": "",
          "type": "tuple[]"
        }
      ],
      "stateMutability": "view",
      "type": "function"
    },
    {
      "inputs": [
        {
          "internalType": "address",
          "name": "_tokenOwner",
          "type": "address"
        }
      ],
      "name": "getOwnerToken",
      "outputs": [
        {
          "components": [
            {
              "internalType": "uint256",
              "name": "tokenId",
              "type": "uint256"
            },
            {
              "internalType": "uint256",
              "name": "Rank",
              "type": "uint256"
            },
            {
              "internalType": "uint256",
              "name": "Type",
              "type": "uint256"
            },
            {
              "internalType": "uint256",
              "name": "price",
              "type": "uint256"
            }
          ],
          "internalType": "struct NTF_Shop.TokenInfo[]",
          "name": "",
          "type": "tuple[]"
        }
      ],
      "stateMutability": "view",
      "type": "function"
    },
    {
      "inputs": [
        {
          "internalType": "address",
          "name": "_tokenOwner",
          "type": "address"
        }
      ],
      "name": "getLatestToken",
      "outputs": [
        {
          "components": [
            {
              "internalType": "uint256",
              "name": "tokenId",
              "type": "uint256"
            },
            {
              "internalType": "uint256",
              "name": "Rank",
              "type": "uint256"
            },
            {
              "internalType": "uint256",
              "name": "Type",
              "type": "uint256"
            },
            {
              "internalType": "uint256",
              "name": "price",
              "type": "uint256"
            }
          ],
          "internalType": "struct NTF_Shop.TokenInfo",
          "name": "",
          "type": "tuple"
        }
      ],
      "stateMutability": "view",
      "type": "function"
    }
  ],
  "bytecode": "0x60806040523480156200001157600080fd5b506040516200179d3803806200179d8339818101604052810190620000379190620000e8565b806000806101000a81548173ffffffffffffffffffffffffffffffffffffffff021916908373ffffffffffffffffffffffffffffffffffffffff160217905550506200011a565b600080fd5b600073ffffffffffffffffffffffffffffffffffffffff82169050919050565b6000620000b08262000083565b9050919050565b620000c281620000a3565b8114620000ce57600080fd5b50565b600081519050620000e281620000b7565b92915050565b6000602082840312156200010157620001006200007e565b5b60006200011184828501620000d1565b91505092915050565b611673806200012a6000396000f3fe60806040526004361061007b5760003560e01c8063a4ad760b1161004e578063a4ad760b1461012d578063c24126761461016a578063e5afe3e614610195578063ea7f31a6146101d25761007b565b80633048f512146100805780636ac7b2bc1461009c578063966c0574146100c5578063a193f56014610102575b600080fd5b61009a60048036038101906100959190611028565b61020f565b005b3480156100a857600080fd5b506100c360048036038101906100be9190611055565b610422565b005b3480156100d157600080fd5b506100ec60048036038101906100e791906110f3565b6105f1565b6040516100f99190611233565b60405180910390f35b34801561010e57600080fd5b5061011761095a565b6040516101249190611233565b60405180910390f35b34801561013957600080fd5b50610154600480360381019061014f91906110f3565b610bb2565b60405161016191906112aa565b60405180910390f35b34801561017657600080fd5b5061017f610e89565b60405161018c9190611324565b60405180910390f35b3480156101a157600080fd5b506101bc60048036038101906101b79190611028565b610ead565b6040516101c9919061134e565b60405180910390f35b3480156101de57600080fd5b506101f960048036038101906101f49190611028565b610ec5565b604051610206919061134e565b60405180910390f35b60008060009054906101000a900473ffffffffffffffffffffffffffffffffffffffff1673ffffffffffffffffffffffffffffffffffffffff16636352211e836040518263ffffffff1660e01b815260040161026b919061134e565b602060405180830381865afa158015610288573d6000803e3d6000fd5b505050506040513d601f19601f820116820180604052508101906102ac919061137e565b90503373ffffffffffffffffffffffffffffffffffffffff168173ffffffffffffffffffffffffffffffffffffffff16036102e657600080fd5b600060016000848152602001908152602001600020541161030657600080fd5b3460016000848152602001908152602001600020541061032557600080fd5b8073ffffffffffffffffffffffffffffffffffffffff166108fc349081150290604051600060405180830381858888f1935050505015801561036b573d6000803e3d6000fd5b5060008054906101000a900473ffffffffffffffffffffffffffffffffffffffff1673ffffffffffffffffffffffffffffffffffffffff166323b872dd8233856040518463ffffffff1660e01b81526004016103c9939291906113ba565b600060405180830381600087803b1580156103e357600080fd5b505af11580156103f7573d6000803e3d6000fd5b505050506000600160008481526020019081526020016000208190555061041d82610ee9565b505050565b60008060009054906101000a900473ffffffffffffffffffffffffffffffffffffffff1673ffffffffffffffffffffffffffffffffffffffff16636352211e846040518263ffffffff1660e01b815260040161047e919061134e565b602060405180830381865afa15801561049b573d6000803e3d6000fd5b505050506040513d601f19601f820116820180604052508101906104bf919061137e565b90503373ffffffffffffffffffffffffffffffffffffffff168173ffffffffffffffffffffffffffffffffffffffff16146104f957600080fd5b6000821161050657600080fd5b60008054906101000a900473ffffffffffffffffffffffffffffffffffffffff1673ffffffffffffffffffffffffffffffffffffffff1663e985e9c533306040518363ffffffff1660e01b81526004016105619291906113f1565b602060405180830381865afa15801561057e573d6000803e3d6000fd5b505050506040513d601f19601f820116820180604052508101906105a29190611452565b6105ab57600080fd5b8160016000858152602001908152602001600020819055506002839080600181540180825580915050600190039060005260206000200160009091909190915055505050565b606060008060009054906101000a900473ffffffffffffffffffffffffffffffffffffffff1673ffffffffffffffffffffffffffffffffffffffff166370a08231846040518263ffffffff1660e01b815260040161064f919061147f565b602060405180830381865afa15801561066c573d6000803e3d6000fd5b505050506040513d601f19601f8201168201806040525081019061069091906114af565b90506000810361069f57600080fd5b60008167ffffffffffffffff8111156106bb576106ba6114dc565b5b6040519080825280602002602001820160405280156106f457816020015b6106e1610fc5565b8152602001906001900390816106d95790505b50905060005b8281101561094f5760008060009054906101000a900473ffffffffffffffffffffffffffffffffffffffff1673ffffffffffffffffffffffffffffffffffffffff16632f745c5987846040518363ffffffff1660e01b815260040161076092919061150b565b602060405180830381865afa15801561077d573d6000803e3d6000fd5b505050506040513d601f19601f820116820180604052508101906107a191906114af565b905060008060009054906101000a900473ffffffffffffffffffffffffffffffffffffffff1673ffffffffffffffffffffffffffffffffffffffff1663d9f33c14836040518263ffffffff1660e01b81526004016107ff919061134e565b602060405180830381865afa15801561081c573d6000803e3d6000fd5b505050506040513d601f19601f8201168201806040525081019061084091906114af565b905060008060009054906101000a900473ffffffffffffffffffffffffffffffffffffffff1673ffffffffffffffffffffffffffffffffffffffff166376aed2e1846040518263ffffffff1660e01b815260040161089e919061134e565b602060405180830381865afa1580156108bb573d6000803e3d6000fd5b505050506040513d601f19601f820116820180604052508101906108df91906114af565b905060006001600085815260200190815260200160002054905060405180608001604052808581526020018481526020018381526020018281525086868151811061092d5761092c611534565b5b602002602001018190525050505050808061094790611592565b9150506106fa565b508092505050919050565b606060006002805490501161096e57600080fd5b600060028054905067ffffffffffffffff81111561098f5761098e6114dc565b5b6040519080825280602002602001820160405280156109c857816020015b6109b5610fc5565b8152602001906001900390816109ad5790505b50905060005b600280549050811015610baa576000600282815481106109f1576109f0611534565b5b9060005260206000200154905060008060009054906101000a900473ffffffffffffffffffffffffffffffffffffffff1673ffffffffffffffffffffffffffffffffffffffff1663d9f33c14836040518263ffffffff1660e01b8152600401610a5a919061134e565b602060405180830381865afa158015610a77573d6000803e3d6000fd5b505050506040513d601f19601f82011682018060405250810190610a9b91906114af565b905060008060009054906101000a900473ffffffffffffffffffffffffffffffffffffffff1673ffffffffffffffffffffffffffffffffffffffff166376aed2e1846040518263ffffffff1660e01b8152600401610af9919061134e565b602060405180830381865afa158015610b16573d6000803e3d6000fd5b505050506040513d601f19601f82011682018060405250810190610b3a91906114af565b9050600060016000858152602001908152602001600020549050604051806080016040528085815260200184815260200183815260200182815250868681518110610b8857610b87611534565b5b6020026020010181905250505050508080610ba290611592565b9150506109ce565b508091505090565b610bba610fc5565b60008060009054906101000a900473ffffffffffffffffffffffffffffffffffffffff1673ffffffffffffffffffffffffffffffffffffffff166370a08231846040518263ffffffff1660e01b8152600401610c16919061147f565b602060405180830381865afa158015610c33573d6000803e3d6000fd5b505050506040513d601f19601f82011682018060405250810190610c5791906114af565b905060008060009054906101000a900473ffffffffffffffffffffffffffffffffffffffff1673ffffffffffffffffffffffffffffffffffffffff16632f745c5985600185610ca691906115da565b6040518363ffffffff1660e01b8152600401610cc392919061150b565b602060405180830381865afa158015610ce0573d6000803e3d6000fd5b505050506040513d601f19601f82011682018060405250810190610d0491906114af565b905060008060009054906101000a900473ffffffffffffffffffffffffffffffffffffffff1673ffffffffffffffffffffffffffffffffffffffff1663d9f33c14836040518263ffffffff1660e01b8152600401610d62919061134e565b602060405180830381865afa158015610d7f573d6000803e3d6000fd5b505050506040513d601f19601f82011682018060405250810190610da391906114af565b905060008060009054906101000a900473ffffffffffffffffffffffffffffffffffffffff1673ffffffffffffffffffffffffffffffffffffffff166376aed2e1846040518263ffffffff1660e01b8152600401610e01919061134e565b602060405180830381865afa158015610e1e573d6000803e3d6000fd5b505050506040513d601f19601f82011682018060405250810190610e4291906114af565b905060006001600085815260200190815260200160002054905060405180608001604052808581526020018481526020018381526020018281525095505050505050919050565b60008054906101000a900473ffffffffffffffffffffffffffffffffffffffff1681565b60016020528060005260406000206000915090505481565b60028181548110610ed557600080fd5b906000526020600020016000915090505481565b600080600090505b600280549050811015610fba578260028281548110610f1357610f12611534565b5b906000526020600020015403610fa75760026001600280549050610f3791906115da565b81548110610f4857610f47611534565b5b906000526020600020015460028281548110610f6757610f66611534565b5b90600052602060002001819055506002805480610f8757610f8661160e565b5b600190038181906000526020600020016000905590556001915050610fc0565b8080610fb290611592565b915050610ef1565b50600090505b919050565b6040518060800160405280600081526020016000815260200160008152602001600081525090565b600080fd5b6000819050919050565b61100581610ff2565b811461101057600080fd5b50565b60008135905061102281610ffc565b92915050565b60006020828403121561103e5761103d610fed565b5b600061104c84828501611013565b91505092915050565b6000806040838503121561106c5761106b610fed565b5b600061107a85828601611013565b925050602061108b85828601611013565b9150509250929050565b600073ffffffffffffffffffffffffffffffffffffffff82169050919050565b60006110c082611095565b9050919050565b6110d0816110b5565b81146110db57600080fd5b50565b6000813590506110ed816110c7565b92915050565b60006020828403121561110957611108610fed565b5b6000611117848285016110de565b91505092915050565b600081519050919050565b600082825260208201905092915050565b6000819050602082019050919050565b61115581610ff2565b82525050565b608082016000820151611171600085018261114c565b506020820151611184602085018261114c565b506040820151611197604085018261114c565b5060608201516111aa606085018261114c565b50505050565b60006111bc838361115b565b60808301905092915050565b6000602082019050919050565b60006111e082611120565b6111ea818561112b565b93506111f58361113c565b8060005b8381101561122657815161120d88826111b0565b9750611218836111c8565b9250506001810190506111f9565b5085935050505092915050565b6000602082019050818103600083015261124d81846111d5565b905092915050565b60808201600082015161126b600085018261114c565b50602082015161127e602085018261114c565b506040820151611291604085018261114c565b5060608201516112a4606085018261114c565b50505050565b60006080820190506112bf6000830184611255565b92915050565b6000819050919050565b60006112ea6112e56112e084611095565b6112c5565b611095565b9050919050565b60006112fc826112cf565b9050919050565b600061130e826112f1565b9050919050565b61131e81611303565b82525050565b60006020820190506113396000830184611315565b92915050565b61134881610ff2565b82525050565b6000602082019050611363600083018461133f565b92915050565b600081519050611378816110c7565b92915050565b60006020828403121561139457611393610fed565b5b60006113a284828501611369565b91505092915050565b6113b4816110b5565b82525050565b60006060820190506113cf60008301866113ab565b6113dc60208301856113ab565b6113e9604083018461133f565b949350505050565b600060408201905061140660008301856113ab565b61141360208301846113ab565b9392505050565b60008115159050919050565b61142f8161141a565b811461143a57600080fd5b50565b60008151905061144c81611426565b92915050565b60006020828403121561146857611467610fed565b5b60006114768482850161143d565b91505092915050565b600060208201905061149460008301846113ab565b92915050565b6000815190506114a981610ffc565b92915050565b6000602082840312156114c5576114c4610fed565b5b60006114d38482850161149a565b91505092915050565b7f4e487b7100000000000000000000000000000000000000000000000000000000600052604160045260246000fd5b600060408201905061152060008301856113ab565b61152d602083018461133f565b9392505050565b7f4e487b7100000000000000000000000000000000000000000000000000000000600052603260045260246000fd5b7f4e487b7100000000000000000000000000000000000000000000000000000000600052601160045260246000fd5b600061159d82610ff2565b91507fffffffffffffffffffffffffffffffffffffffffffffffffffffffffffffffff82036115cf576115ce611563565b5b600182019050919050565b60006115e582610ff2565b91506115f083610ff2565b925082820390508181111561160857611607611563565b5b92915050565b7f4e487b7100000000000000000000000000000000000000000000000000000000600052603160045260246000fdfea26469706673582212202f68c21654106472b8222f5cd462955389a501aca6ca36410976da9333425fea64736f6c63430008110033",
  "immutableReferences": {},
  "source": "// SPDX-License-Identifier: MIT\r\n\r\npragma solidity ^0.8.17;\r\n\r\nimport \"./Monster_NFT_Data.sol\";\r\n\r\ncontract NTF_Shop {\r\n    // Token  , NFT_Token     .\r\n    Monster_NFT_Data public Token;\r\n\r\n    //       NFT_Token CA    .\r\n    constructor(address _tokenAddress) {\r\n        Token = Monster_NFT_Data(_tokenAddress);\r\n    }\r\n\r\n    // Token.getTokenRank(1)     .\r\n\r\n    // Token info \r\n    struct TokenInfo {\r\n        uint256 tokenId;\r\n        uint256 Rank;\r\n        uint256 Type;\r\n        uint256 price;\r\n    }\r\n\r\n    // token  => price( )\r\n    mapping(uint256 => uint256) public tokenPrices;\r\n\r\n    //  NFT     \r\n    uint256[] public SellTokenList;\r\n\r\n    //   \r\n    function SellsToken(uint256 _tokenId, uint256 _price) public {\r\n        //    .\r\n        address tokenOwner = Token.ownerOf(_tokenId);\r\n\r\n        //           \r\n        require(tokenOwner == msg.sender);\r\n\r\n        //   0   \r\n        require(_price > 0);\r\n\r\n        // isApprovedForAll ( ( = ,  =  ) )\r\n        // :             CA .\r\n        // this SellToken  .\r\n        require(Token.isApprovedForAll(msg.sender, address(this)));\r\n        // opensea nft    setApprovedForAll()      NFT  opensea  .\r\n\r\n        //       \r\n        tokenPrices[_tokenId] = _price;\r\n\r\n        //     \r\n        SellTokenList.push(_tokenId);\r\n    }\r\n\r\n    //   \r\n    function PurchaseToken(uint256 _tokenId) public payable {\r\n        //    \r\n        address tokenOwner = Token.ownerOf(_tokenId);\r\n\r\n        //     \r\n        require(tokenOwner != msg.sender);\r\n\r\n        //       (tokenPrices    0    )\r\n        require(tokenPrices[_tokenId] > 0);\r\n\r\n        //       \r\n        require(tokenPrices[_tokenId] < msg.value);\r\n\r\n        // CA    \r\n        payable(tokenOwner).transfer(msg.value);\r\n\r\n        //   \r\n        Token.transferFrom(tokenOwner, msg.sender, _tokenId);\r\n\r\n        //   :  \r\n        // {\r\n        //     1 :\"0xqwueklrjasdf\"\r\n        // }\r\n\r\n        //     0 \r\n        tokenPrices[_tokenId] = 0;\r\n        popSellToken(_tokenId);\r\n    }\r\n\r\n    function popSellToken(uint256 _tokenId) private returns (bool) {\r\n        for (uint256 i = 0; i < SellTokenList.length; i++) {\r\n            if (SellTokenList[i] == _tokenId) {\r\n                SellTokenList[i] = SellTokenList[SellTokenList.length - 1];\r\n                SellTokenList.pop();\r\n                return true;\r\n            }\r\n        }\r\n        return false;\r\n    }\r\n\r\n    //    ,   view  .\r\n    function getSellTokenList() public view returns (TokenInfo[] memory) {\r\n        //   \r\n        require(SellTokenList.length > 0);\r\n\r\n        // SellTokenList       .\r\n        // const arr = new Array(SellTokenList.length);   \r\n        TokenInfo[] memory list = new TokenInfo[](SellTokenList.length);\r\n\r\n        for (uint256 i = 0; i < SellTokenList.length; i++) {\r\n            uint256 tokenId = SellTokenList[i];\r\n            uint256 Rank = Token.getTokenRank(tokenId);\r\n            uint256 Type = Token.getTokenType(tokenId);\r\n            uint256 price = tokenPrices[tokenId];\r\n\r\n            // list    \r\n            list[i] = TokenInfo(tokenId, Rank, Type, price);\r\n        }\r\n        // for   .\r\n        // [{tokenId : 20, Rank : 2, Type: 3, price : 100000},{tokenId : 13, Rank : 1, Type: 4, price : 100000}]\r\n        return list;\r\n    }\r\n\r\n    //   NFT  view \r\n    function getOwnerToken(address _tokenOwner)\r\n        public\r\n        view\r\n        returns (TokenInfo[] memory)\r\n    {\r\n        uint256 balance = Token.balanceOf(_tokenOwner);\r\n        //  \r\n        require(balance != 0);\r\n\r\n        // balance   \r\n        TokenInfo[] memory list = new TokenInfo[](balance);\r\n\r\n        for (uint256 i = 0; i < balance; i++) {\r\n            //      .\r\n            uint256 tokenId = Token.tokenOfOwnerByIndex(_tokenOwner, i);\r\n            uint256 Rank = Token.getTokenRank(tokenId);\r\n            uint256 Type = Token.getTokenType(tokenId);\r\n            uint256 price = tokenPrices[tokenId];\r\n\r\n            list[i] = TokenInfo(tokenId, Rank, Type, price);\r\n        }\r\n\r\n        return list;\r\n    }\r\n\r\n    //   NFT  view ,      \r\n    function getLatestToken(address _tokenOwner)\r\n        public\r\n        view\r\n        returns (TokenInfo memory)\r\n    {\r\n        uint256 _balance = Token.balanceOf(_tokenOwner);\r\n        uint256 tokenId = Token.tokenOfOwnerByIndex(_tokenOwner, _balance - 1);\r\n        uint256 Rank = Token.getTokenRank(tokenId);\r\n        uint256 Type = Token.getTokenType(tokenId);\r\n        uint256 price = tokenPrices[tokenId];\r\n\r\n        return TokenInfo(tokenId, Rank, Type, price);\r\n    }\r\n}\r\n",
  "sourcePath": "C:\\Users\\HY\\Desktop\\nft_toy_project\\contracts\\NFT_Shop.sol",
  "compiler": {
    "name": "solc",
    "version": "0.8.17+commit.8df45f5f.Emscripten.clang"
  },
  "schemaVersion": "3.4.11",
  "updatedAt": "2022-12-23T06:42:47.504Z",
  "devdoc": {
    "kind": "dev",
    "methods": {},
    "version": 1
  },
  "userdoc": {
    "kind": "user",
    "methods": {},
    "version": 1
  }
}